{"abi":[{"type":"constructor","inputs":[],"stateMutability":"nonpayable"},{"type":"function","name":"GENERAL_MEMBERS_ELECTED","inputs":[],"outputs":[{"name":"","type":"uint256","internalType":"uint256"}],"stateMutability":"view"},{"type":"function","name":"admin","inputs":[],"outputs":[{"name":"","type":"address","internalType":"address"}],"stateMutability":"view"},{"type":"function","name":"candidateCount","inputs":[],"outputs":[{"name":"","type":"uint256","internalType":"uint256"}],"stateMutability":"view"},{"type":"function","name":"candidates","inputs":[{"name":"","type":"uint256","internalType":"uint256"}],"outputs":[{"name":"id","type":"uint256","internalType":"uint256"},{"name":"guid","type":"string","internalType":"string"},{"name":"wallet","type":"address","internalType":"address"},{"name":"position","type":"uint8","internalType":"enum Election1.Position"},{"name":"voteCount","type":"uint256","internalType":"uint256"},{"name":"exists","type":"bool","internalType":"bool"}],"stateMutability":"view"},{"type":"function","name":"electionState","inputs":[],"outputs":[{"name":"","type":"uint8","internalType":"enum Election1.ElectionState"}],"stateMutability":"view"},{"type":"function","name":"finalizeElection","inputs":[],"outputs":[],"stateMutability":"nonpayable"},{"type":"function","name":"generalMemberCount","inputs":[],"outputs":[{"name":"","type":"uint256","internalType":"uint256"}],"stateMutability":"view"},{"type":"function","name":"generalMemberWinnerIds","inputs":[{"name":"","type":"uint256","internalType":"uint256"}],"outputs":[{"name":"","type":"uint256","internalType":"uint256"}],"stateMutability":"view"},{"type":"function","name":"getCandidate","inputs":[{"name":"_id","type":"uint256","internalType":"uint256"}],"outputs":[{"name":"","type":"tuple","internalType":"struct Election1.Candidate","components":[{"name":"id","type":"uint256","internalType":"uint256"},{"name":"guid","type":"string","internalType":"string"},{"name":"wallet","type":"address","internalType":"address"},{"name":"position","type":"uint8","internalType":"enum Election1.Position"},{"name":"voteCount","type":"uint256","internalType":"uint256"},{"name":"exists","type":"bool","internalType":"bool"}]}],"stateMutability":"view"},{"type":"function","name":"hasVoted","inputs":[{"name":"","type":"address","internalType":"address"}],"outputs":[{"name":"","type":"bool","internalType":"bool"}],"stateMutability":"view"},{"type":"function","name":"isGuidRegistered","inputs":[{"name":"guid","type":"string","internalType":"string"}],"outputs":[{"name":"","type":"bool","internalType":"bool"}],"stateMutability":"view"},{"type":"function","name":"isVerified","inputs":[{"name":"voter","type":"address","internalType":"address"}],"outputs":[{"name":"","type":"bool","internalType":"bool"}],"stateMutability":"view"},{"type":"function","name":"presidentCount","inputs":[],"outputs":[{"name":"","type":"uint256","internalType":"uint256"}],"stateMutability":"view"},{"type":"function","name":"presidentWinnerId","inputs":[],"outputs":[{"name":"","type":"uint256","internalType":"uint256"}],"stateMutability":"view"},{"type":"function","name":"registerGeneralMembers","inputs":[{"name":"inputs","type":"tuple[]","internalType":"struct Election1.CandidateInput[]","components":[{"name":"guid","type":"string","internalType":"string"},{"name":"wallet","type":"address","internalType":"address"}]}],"outputs":[],"stateMutability":"nonpayable"},{"type":"function","name":"registerPresidentCandidates","inputs":[{"name":"inputs","type":"tuple[]","internalType":"struct Election1.CandidateInput[]","components":[{"name":"guid","type":"string","internalType":"string"},{"name":"wallet","type":"address","internalType":"address"}]}],"outputs":[],"stateMutability":"nonpayable"},{"type":"function","name":"registerSecretaryCandidates","inputs":[{"name":"inputs","type":"tuple[]","internalType":"struct Election1.CandidateInput[]","components":[{"name":"guid","type":"string","internalType":"string"},{"name":"wallet","type":"address","internalType":"address"}]}],"outputs":[],"stateMutability":"nonpayable"},{"type":"function","name":"registrationEndTime","inputs":[],"outputs":[{"name":"","type":"uint256","internalType":"uint256"}],"stateMutability":"view"},{"type":"function","name":"registrationStartTime","inputs":[],"outputs":[{"name":"","type":"uint256","internalType":"uint256"}],"stateMutability":"view"},{"type":"function","name":"resultsFinalized","inputs":[],"outputs":[{"name":"","type":"bool","internalType":"bool"}],"stateMutability":"view"},{"type":"function","name":"revokeVoter","inputs":[{"name":"voter","type":"address","internalType":"address"}],"outputs":[],"stateMutability":"nonpayable"},{"type":"function","name":"secretaryCount","inputs":[],"outputs":[{"name":"","type":"uint256","internalType":"uint256"}],"stateMutability":"view"},{"type":"function","name":"secretaryWinnerId","inputs":[],"outputs":[{"name":"","type":"uint256","internalType":"uint256"}],"stateMutability":"view"},{"type":"function","name":"startElection","inputs":[{"name":"_startTime","type":"uint256","internalType":"uint256"},{"name":"_endTime","type":"uint256","internalType":"uint256"}],"outputs":[],"stateMutability":"nonpayable"},{"type":"function","name":"startRegistration","inputs":[{"name":"_startTime","type":"uint256","internalType":"uint256"},{"name":"_endTime","type":"uint256","internalType":"uint256"}],"outputs":[],"stateMutability":"nonpayable"},{"type":"function","name":"verificationLocked","inputs":[],"outputs":[{"name":"","type":"bool","internalType":"bool"}],"stateMutability":"view"},{"type":"function","name":"verifiedVoters","inputs":[{"name":"","type":"address","internalType":"address"}],"outputs":[{"name":"","type":"bool","internalType":"bool"}],"stateMutability":"view"},{"type":"function","name":"verifyVoters","inputs":[{"name":"voters","type":"address[]","internalType":"address[]"}],"outputs":[],"stateMutability":"nonpayable"},{"type":"function","name":"vote","inputs":[{"name":"_presidentId","type":"uint256","internalType":"uint256"},{"name":"_secretaryId","type":"uint256","internalType":"uint256"},{"name":"_memberIds","type":"uint256[]","internalType":"uint256[]"}],"outputs":[],"stateMutability":"nonpayable"},{"type":"function","name":"votingEndTime","inputs":[],"outputs":[{"name":"","type":"uint256","internalType":"uint256"}],"stateMutability":"view"},{"type":"function","name":"votingStartTime","inputs":[],"outputs":[{"name":"","type":"uint256","internalType":"uint256"}],"stateMutability":"view"},{"type":"event","name":"CandidateRegistered","inputs":[{"name":"id","type":"uint256","indexed":true,"internalType":"uint256"},{"name":"guid","type":"string","indexed":false,"internalType":"string"},{"name":"position","type":"uint8","indexed":false,"internalType":"enum Election1.Position"}],"anonymous":false},{"type":"event","name":"CandidatesBatchRegistered","inputs":[{"name":"position","type":"uint8","indexed":false,"internalType":"enum Election1.Position"},{"name":"count","type":"uint256","indexed":false,"internalType":"uint256"}],"anonymous":false},{"type":"event","name":"ElectionFinalized","inputs":[{"name":"presidentWinnerId","type":"uint256","indexed":false,"internalType":"uint256"},{"name":"secretaryWinnerId","type":"uint256","indexed":false,"internalType":"uint256"},{"name":"generalMemberWinnerIds","type":"uint256[]","indexed":false,"internalType":"uint256[]"}],"anonymous":false},{"type":"event","name":"ElectionStarted","inputs":[{"name":"votingStartTime","type":"uint256","indexed":false,"internalType":"uint256"},{"name":"votingEndTime","type":"uint256","indexed":false,"internalType":"uint256"}],"anonymous":false},{"type":"event","name":"RegistrationStarted","inputs":[{"name":"registrationStartTime","type":"uint256","indexed":false,"internalType":"uint256"},{"name":"registrationEndTime","type":"uint256","indexed":false,"internalType":"uint256"}],"anonymous":false},{"type":"event","name":"VerificationLocked","inputs":[],"anonymous":false},{"type":"event","name":"VoteCast","inputs":[{"name":"voter","type":"address","indexed":true,"internalType":"address"},{"name":"presidentId","type":"uint256","indexed":false,"internalType":"uint256"},{"name":"secretaryId","type":"uint256","indexed":false,"internalType":"uint256"},{"name":"memberIds","type":"uint256[]","indexed":false,"internalType":"uint256[]"}],"anonymous":false},{"type":"event","name":"VoteUpdated","inputs":[{"name":"candidateId","type":"uint256","indexed":false,"internalType":"uint256"},{"name":"newVoteCount","type":"uint256","indexed":false,"internalType":"uint256"}],"anonymous":false},{"type":"event","name":"VoterRevoked","inputs":[{"name":"voter","type":"address","indexed":true,"internalType":"address"}],"anonymous":false},{"type":"event","name":"VotersVerified","inputs":[{"name":"voters","type":"address[]","indexed":false,"internalType":"address[]"}],"anonymous":false}],"bytecode":{"object":"0x6080604052348015600e575f5ffd5b50335f5f6101000a81548173ffffffffffffffffffffffffffffffffffffffff021916908373ffffffffffffffffffffffffffffffffffffffff1602179055505f5f60146101000a81548160ff02191690836003811115606f57606e6078565b5b021790555060a5565b7f4e487b71000000000000000000000000000000000000000000000000000000005f52602160045260245ffd5b61470e806100b25f395ff3fe608060405234801561000f575f5ffd5b50600436106101e3575f3560e01c80637c2c31aa1161010d578063be279a0f116100a0578063e1349bd71161006f578063e1349bd714610560578063e9dbe5ce1461057c578063f68ad2b11461059a578063f851a440146105ca576101e3565b8063be279a0f146104d6578063d971bd8614610506578063dff7d2c714610524578063e09f3dd614610542576101e3565b80639eab143b116100dc5780639eab143b1461043a578063a3e152dc1461046a578063a9a981a314610488578063b9209e33146104a6576101e3565b80637c2c31aa146103c65780639af5c09d146103e25780639db913b1146104005780639e225d841461041c576101e3565b80632a1fac16116101855780634c65811a116101545780634c65811a146103665780635eddaff1146103845780636a6f07fa146103a05780636cc6837e146103bc576101e3565b80632a1fac16146102c95780633477ee2e146102e557806335b8e8201461031a578063361059411461034a576101e3565b8063170773a5116101c1578063170773a5146102515780631ea736e01461026f5780632019a6081461028d5780632280043d146102ab576101e3565b806309eef43e146101e75780630c54b46314610217578063144f0b3c14610233575b5f5ffd5b61020160048036038101906101fc9190612bc4565b6105e8565b60405161020e9190612c09565b60405180910390f35b610231600480360381019061022c9190612c55565b610605565b005b61023b6108d6565b6040516102489190612ca2565b60405180910390f35b6102596108dc565b6040516102669190612c09565b60405180910390f35b6102776108ee565b6040516102849190612ca2565b60405180910390f35b6102956108f4565b6040516102a29190612ca2565b60405180910390f35b6102b36108fa565b6040516102c09190612d2e565b60405180910390f35b6102e360048036038101906102de9190612bc4565b61090c565b005b6102ff60048036038101906102fa9190612d47565b610b66565b60405161031196959493929190612e37565b60405180910390f35b610334600480360381019061032f9190612d47565b610c5c565b6040516103419190612fa7565b60405180910390f35b610364600480360381019061035f9190613028565b610dd4565b005b61036e610f73565b60405161037b9190612c09565b60405180910390f35b61039e60048036038101906103999190612c55565b610f85565b005b6103ba60048036038101906103b59190613028565b611186565b005b6103c4611324565b005b6103e060048036038101906103db9190613028565b611607565b005b6103ea6117a6565b6040516103f79190612ca2565b60405180910390f35b61041a600480360381019061041591906130c8565b6117ac565b005b610424611a8d565b6040516104319190612ca2565b60405180910390f35b610454600480360381019061044f9190613168565b611a92565b6040516104619190612c09565b60405180910390f35b610472611ac8565b60405161047f9190612ca2565b60405180910390f35b610490611ace565b60405161049d9190612ca2565b60405180910390f35b6104c060048036038101906104bb9190612bc4565b611ad4565b6040516104cd9190612c09565b60405180910390f35b6104f060048036038101906104eb9190612d47565b611b26565b6040516104fd9190612ca2565b60405180910390f35b61050e611b3f565b60405161051b9190612ca2565b60405180910390f35b61052c611b45565b6040516105399190612ca2565b60405180910390f35b61054a611b4b565b6040516105579190612ca2565b60405180910390f35b61057a60048036038101906105759190613208565b611b51565b005b610584612368565b6040516105919190612ca2565b60405180910390f35b6105b460048036038101906105af9190612bc4565b61236e565b6040516105c19190612c09565b60405180910390f35b6105d261238b565b6040516105df9190613279565b60405180910390f35b6012602052805f5260405f205f915054906101000a900460ff1681565b5f5f9054906101000a900473ffffffffffffffffffffffffffffffffffffffff1673ffffffffffffffffffffffffffffffffffffffff163373ffffffffffffffffffffffffffffffffffffffff1614610693576040517f08c379a000000000000000000000000000000000000000000000000000000000815260040161068a906132dc565b60405180910390fd5b60018060038111156106a8576106a7612cbb565b5b5f60149054906101000a900460ff1660038111156106c9576106c8612cbb565b5b14610709576040517f08c379a000000000000000000000000000000000000000000000000000000000815260040161070090613344565b60405180910390fd5b82821161074b576040517f08c379a0000000000000000000000000000000000000000000000000000000008152600401610742906133ac565b60405180910390fd5b42821161078d576040517f08c379a000000000000000000000000000000000000000000000000000000000815260040161078490613414565b60405180910390fd5b60035442116107d1576040517f08c379a00000000000000000000000000000000000000000000000000000000081526004016107c89061347c565b60405180910390fd5b600354831015610816576040517f08c379a000000000000000000000000000000000000000000000000000000000815260040161080d9061350a565b60405180910390fd5b600160145f6101000a81548160ff02191690831515021790555060025f60146101000a81548160ff0219169083600381111561085557610854612cbb565b5b021790555082600481905550816005819055507f1024fb7d5babdf63f1a27fabc27a09f406efd61a6d16682798a3a50a1a5348d060405160405180910390a17fff6a30dd22f5e8b783044c7d895a6e8592b55c56f139978d44dc39daf596731f6004546005546040516108c9929190613528565b60405180910390a1505050565b60175481565b60065f9054906101000a900460ff1681565b60055481565b60045481565b5f60149054906101000a900460ff1681565b5f5f9054906101000a900473ffffffffffffffffffffffffffffffffffffffff1673ffffffffffffffffffffffffffffffffffffffff163373ffffffffffffffffffffffffffffffffffffffff161461099a576040517f08c379a0000000000000000000000000000000000000000000000000000000008152600401610991906132dc565b60405180910390fd5b60145f9054906101000a900460ff16156109e9576040517f08c379a00000000000000000000000000000000000000000000000000000000081526004016109e090613599565b60405180910390fd5b600160038111156109fd576109fc612cbb565b5b5f60149054906101000a900460ff166003811115610a1e57610a1d612cbb565b5b14610a5e576040517f08c379a0000000000000000000000000000000000000000000000000000000008152600401610a5590613344565b60405180910390fd5b5f73ffffffffffffffffffffffffffffffffffffffff168173ffffffffffffffffffffffffffffffffffffffff1603610acc576040517f08c379a0000000000000000000000000000000000000000000000000000000008152600401610ac390613601565b60405180910390fd5b5f60115f8373ffffffffffffffffffffffffffffffffffffffff1673ffffffffffffffffffffffffffffffffffffffff1681526020019081526020015f205f6101000a81548160ff0219169083151502179055508073ffffffffffffffffffffffffffffffffffffffff167f8bd8971f91a5fea9c7ec31a7cd7a7cc467c75c932ea4bc73be16a0253d79eb8760405160405180910390a250565b6010602052805f5260405f205f91509050805f015490806001018054610b8b9061364c565b80601f0160208091040260200160405190810160405280929190818152602001828054610bb79061364c565b8015610c025780601f10610bd957610100808354040283529160200191610c02565b820191905f5260205f20905b815481529060010190602001808311610be557829003601f168201915b505050505090806002015f9054906101000a900473ffffffffffffffffffffffffffffffffffffffff16908060020160149054906101000a900460ff1690806003015490806004015f9054906101000a900460ff16905086565b610c64612b07565b60105f8381526020019081526020015f206040518060c00160405290815f8201548152602001600182018054610c999061364c565b80601f0160208091040260200160405190810160405280929190818152602001828054610cc59061364c565b8015610d105780601f10610ce757610100808354040283529160200191610d10565b820191905f5260205f20905b815481529060010190602001808311610cf357829003601f168201915b50505050508152602001600282015f9054906101000a900473ffffffffffffffffffffffffffffffffffffffff1673ffffffffffffffffffffffffffffffffffffffff1673ffffffffffffffffffffffffffffffffffffffff1681526020016002820160149054906101000a900460ff166002811115610d9357610d92612cbb565b5b6002811115610da557610da4612cbb565b5b815260200160038201548152602001600482015f9054906101000a900460ff1615151515815250509050919050565b5f5f9054906101000a900473ffffffffffffffffffffffffffffffffffffffff1673ffffffffffffffffffffffffffffffffffffffff163373ffffffffffffffffffffffffffffffffffffffff1614610e62576040517f08c379a0000000000000000000000000000000000000000000000000000000008152600401610e59906132dc565b60405180910390fd5b6001806003811115610e7757610e76612cbb565b5b5f60149054906101000a900460ff166003811115610e9857610e97612cbb565b5b14610ed8576040517f08c379a0000000000000000000000000000000000000000000000000000000008152600401610ecf90613344565b60405180910390fd5b600254421015610f1d576040517f08c379a0000000000000000000000000000000000000000000000000000000008152600401610f14906136c6565b60405180910390fd5b600354421115610f62576040517f08c379a0000000000000000000000000000000000000000000000000000000008152600401610f599061372e565b60405180910390fd5b610f6e838360026123af565b505050565b60145f9054906101000a900460ff1681565b5f5f9054906101000a900473ffffffffffffffffffffffffffffffffffffffff1673ffffffffffffffffffffffffffffffffffffffff163373ffffffffffffffffffffffffffffffffffffffff1614611013576040517f08c379a000000000000000000000000000000000000000000000000000000000815260040161100a906132dc565b60405180910390fd5b5f80600381111561102757611026612cbb565b5b5f60149054906101000a900460ff16600381111561104857611047612cbb565b5b14611088576040517f08c379a000000000000000000000000000000000000000000000000000000000815260040161107f90613344565b60405180910390fd5b8282116110ca576040517f08c379a00000000000000000000000000000000000000000000000000000000081526004016110c1906133ac565b60405180910390fd5b42821161110c576040517f08c379a000000000000000000000000000000000000000000000000000000000815260040161110390613414565b60405180910390fd5b826002819055508160038190555060015f60146101000a81548160ff0219169083600381111561113f5761113e612cbb565b5b02179055507fe43a2035d72fa9558e272ce1917b2d097611c94ed6280e5625d67fdd7335c46c600254600354604051611179929190613528565b60405180910390a1505050565b5f5f9054906101000a900473ffffffffffffffffffffffffffffffffffffffff1673ffffffffffffffffffffffffffffffffffffffff163373ffffffffffffffffffffffffffffffffffffffff1614611214576040517f08c379a000000000000000000000000000000000000000000000000000000000815260040161120b906132dc565b60405180910390fd5b600180600381111561122957611228612cbb565b5b5f60149054906101000a900460ff16600381111561124a57611249612cbb565b5b1461128a576040517f08c379a000000000000000000000000000000000000000000000000000000000815260040161128190613344565b60405180910390fd5b6002544210156112cf576040517f08c379a00000000000000000000000000000000000000000000000000000000081526004016112c6906136c6565b60405180910390fd5b600354421115611314576040517f08c379a000000000000000000000000000000000000000000000000000000000815260040161130b9061372e565b60405180910390fd5b61131f83835f6123af565b505050565b5f5f9054906101000a900473ffffffffffffffffffffffffffffffffffffffff1673ffffffffffffffffffffffffffffffffffffffff163373ffffffffffffffffffffffffffffffffffffffff16146113b2576040517f08c379a00000000000000000000000000000000000000000000000000000000081526004016113a9906132dc565b60405180910390fd5b60028060038111156113c7576113c6612cbb565b5b5f60149054906101000a900460ff1660038111156113e8576113e7612cbb565b5b14611428576040517f08c379a000000000000000000000000000000000000000000000000000000000815260040161141f90613344565b60405180910390fd5b600554421161146c576040517f08c379a000000000000000000000000000000000000000000000000000000000815260040161146390613796565b60405180910390fd5b60065f9054906101000a900460ff16156114bb576040517f08c379a00000000000000000000000000000000000000000000000000000000081526004016114b2906137fe565b60405180910390fd5b6114c45f612826565b6007819055506114d46001612826565b6008819055506114e2612949565b600160065f6101000a81548160ff02191690831515021790555060035f60146101000a81548160ff0219169083600381111561152157611520612cbb565b5b02179055505f600767ffffffffffffffff8111156115425761154161381c565b5b6040519080825280602002602001820160405280156115705781602001602082028036833780820191505090505b5090505f5f90505b60078110156115c3576009816007811061159557611594613849565b5b01548282815181106115aa576115a9613849565b5b6020026020010181815250508080600101915050611578565b507f06b339a4c37d83ec88c1c70e53c40705c6785b846ad3c3f759290e544a40a0e1600754600854836040516115fb9392919061391e565b60405180910390a15050565b5f5f9054906101000a900473ffffffffffffffffffffffffffffffffffffffff1673ffffffffffffffffffffffffffffffffffffffff163373ffffffffffffffffffffffffffffffffffffffff1614611695576040517f08c379a000000000000000000000000000000000000000000000000000000000815260040161168c906132dc565b60405180910390fd5b60018060038111156116aa576116a9612cbb565b5b5f60149054906101000a900460ff1660038111156116cb576116ca612cbb565b5b1461170b576040517f08c379a000000000000000000000000000000000000000000000000000000000815260040161170290613344565b60405180910390fd5b600254421015611750576040517f08c379a0000000000000000000000000000000000000000000000000000000008152600401611747906136c6565b60405180910390fd5b600354421115611795576040517f08c379a000000000000000000000000000000000000000000000000000000000815260040161178c9061372e565b60405180910390fd5b6117a1838360016123af565b505050565b60025481565b5f5f9054906101000a900473ffffffffffffffffffffffffffffffffffffffff1673ffffffffffffffffffffffffffffffffffffffff163373ffffffffffffffffffffffffffffffffffffffff161461183a576040517f08c379a0000000000000000000000000000000000000000000000000000000008152600401611831906132dc565b60405180910390fd5b60145f9054906101000a900460ff1615611889576040517f08c379a000000000000000000000000000000000000000000000000000000000815260040161188090613599565b60405180910390fd5b6001600381111561189d5761189c612cbb565b5b5f60149054906101000a900460ff1660038111156118be576118bd612cbb565b5b146118fe576040517f08c379a00000000000000000000000000000000000000000000000000000000081526004016118f590613344565b60405180910390fd5b5f8282905011611943576040517f08c379a000000000000000000000000000000000000000000000000000000000815260040161193a906139a4565b60405180910390fd5b5f5f90505b82829050811015611a4f575f83838381811061196757611966613849565b5b905060200201602081019061197c9190612bc4565b90505f73ffffffffffffffffffffffffffffffffffffffff168173ffffffffffffffffffffffffffffffffffffffff16036119ec576040517f08c379a00000000000000000000000000000000000000000000000000000000081526004016119e390613601565b60405180910390fd5b600160115f8373ffffffffffffffffffffffffffffffffffffffff1673ffffffffffffffffffffffffffffffffffffffff1681526020019081526020015f205f6101000a81548160ff021916908315150217905550508080600101915050611948565b507ff065f796c2a4da1fe4801507890a5539e0c7f00416460362d624f99786d86c718282604051611a81929190613a6f565b60405180910390a15050565b600781565b5f60138383604051611aa5929190613acd565b90815260200160405180910390205f9054906101000a900460ff16905092915050565b60155481565b60015481565b5f60115f8373ffffffffffffffffffffffffffffffffffffffff1673ffffffffffffffffffffffffffffffffffffffff1681526020019081526020015f205f9054906101000a900460ff169050919050565b60098160078110611b35575f80fd5b015f915090505481565b60165481565b60035481565b60085481565b6002806003811115611b6657611b65612cbb565b5b5f60149054906101000a900460ff166003811115611b8757611b86612cbb565b5b14611bc7576040517f08c379a0000000000000000000000000000000000000000000000000000000008152600401611bbe90613344565b60405180910390fd5b600454421015611c0c576040517f08c379a0000000000000000000000000000000000000000000000000000000008152600401611c0390613b2f565b60405180910390fd5b600554421115611c51576040517f08c379a0000000000000000000000000000000000000000000000000000000008152600401611c4890613b97565b60405180910390fd5b60115f3373ffffffffffffffffffffffffffffffffffffffff1673ffffffffffffffffffffffffffffffffffffffff1681526020019081526020015f205f9054906101000a900460ff16611cda576040517f08c379a0000000000000000000000000000000000000000000000000000000008152600401611cd190613bff565b60405180910390fd5b60125f3373ffffffffffffffffffffffffffffffffffffffff1673ffffffffffffffffffffffffffffffffffffffff1681526020019081526020015f205f9054906101000a900460ff1615611d64576040517f08c379a0000000000000000000000000000000000000000000000000000000008152600401611d5b90613c67565b60405180910390fd5b60078383905014611daa576040517f08c379a0000000000000000000000000000000000000000000000000000000008152600401611da190613ccf565b60405180910390fd5b5f5f90505b83839050811015611e65575f600182611dc89190613d1a565b90505b84849050811015611e5757848482818110611de957611de8613849565b5b90506020020135858584818110611e0357611e02613849565b5b9050602002013503611e4a576040517f08c379a0000000000000000000000000000000000000000000000000000000008152600401611e4190613d97565b60405180910390fd5b8080600101915050611dcb565b508080600101915050611daf565b5060105f8681526020019081526020015f206004015f9054906101000a900460ff16611ec6576040517f08c379a0000000000000000000000000000000000000000000000000000000008152600401611ebd90613dff565b60405180910390fd5b5f6002811115611ed957611ed8612cbb565b5b60105f8781526020019081526020015f2060020160149054906101000a900460ff166002811115611f0d57611f0c612cbb565b5b14611f4d576040517f08c379a0000000000000000000000000000000000000000000000000000000008152600401611f4490613e67565b60405180910390fd5b60105f8681526020019081526020015f206003015f815480929190611f7190613e85565b91905055507f04c84a5221a4ec38bae6ca6f045bceb73001f03f12568b6f1c7537117143312d8560105f8881526020019081526020015f2060030154604051611fbb929190613528565b60405180910390a160105f8581526020019081526020015f206004015f9054906101000a900460ff16612023576040517f08c379a000000000000000000000000000000000000000000000000000000000815260040161201a90613f16565b60405180910390fd5b6001600281111561203757612036612cbb565b5b60105f8681526020019081526020015f2060020160149054906101000a900460ff16600281111561206b5761206a612cbb565b5b146120ab576040517f08c379a00000000000000000000000000000000000000000000000000000000081526004016120a290613f7e565b60405180910390fd5b60105f8581526020019081526020015f206003015f8154809291906120cf90613e85565b91905055507f04c84a5221a4ec38bae6ca6f045bceb73001f03f12568b6f1c7537117143312d8460105f8781526020019081526020015f2060030154604051612119929190613528565b60405180910390a15f5f90505b60078110156122b7575f84848381811061214357612142613849565b5b90506020020135905060105f8281526020019081526020015f206004015f9054906101000a900460ff166121ac576040517f08c379a00000000000000000000000000000000000000000000000000000000081526004016121a390613fe6565b60405180910390fd5b6002808111156121bf576121be612cbb565b5b60105f8381526020019081526020015f2060020160149054906101000a900460ff1660028111156121f3576121f2612cbb565b5b14612233576040517f08c379a000000000000000000000000000000000000000000000000000000000815260040161222a9061404e565b60405180910390fd5b60105f8281526020019081526020015f206003015f81548092919061225790613e85565b91905055507f04c84a5221a4ec38bae6ca6f045bceb73001f03f12568b6f1c7537117143312d8160105f8481526020019081526020015f20600301546040516122a1929190613528565b60405180910390a1508080600101915050612126565b50600160125f3373ffffffffffffffffffffffffffffffffffffffff1673ffffffffffffffffffffffffffffffffffffffff1681526020019081526020015f205f6101000a81548160ff0219169083151502179055503373ffffffffffffffffffffffffffffffffffffffff167f18c832fefb02285898e5b19ba7ab912997cdde5845a96c2f31e13b3a924380688686868660405161235994939291906140d4565b60405180910390a25050505050565b60075481565b6011602052805f5260405f205f915054906101000a900460ff1681565b5f5f9054906101000a900473ffffffffffffffffffffffffffffffffffffffff1681565b5f83839050116123f4576040517f08c379a00000000000000000000000000000000000000000000000000000000081526004016123eb9061415c565b60405180910390fd5b5f5f90505b838390508110156127e4573684848381811061241857612417613849565b5b905060200281019061242a9190614186565b90505f81805f019061243c91906141ad565b90501161247e576040517f08c379a000000000000000000000000000000000000000000000000000000000815260040161247590614259565b60405180910390fd5b601381805f019061248f91906141ad565b60405161249d929190613acd565b90815260200160405180910390205f9054906101000a900460ff16156124f8576040517f08c379a00000000000000000000000000000000000000000000000000000000081526004016124ef906142c1565b60405180910390fd5b60015f81548092919061250a90613e85565b91905055506001601382805f019061252291906141ad565b604051612530929190613acd565b90815260200160405180910390205f6101000a81548160ff0219169083151502179055505f600281111561256757612566612cbb565b5b83600281111561257a57612579612cbb565b5b0361259b5760155f81548092919061259190613e85565b91905055506125fc565b600160028111156125af576125ae612cbb565b5b8360028111156125c2576125c1612cbb565b5b036125e35760165f8154809291906125d990613e85565b91905055506125fb565b60175f8154809291906125f590613e85565b91905055505b5b6040518060c00160405280600154815260200182805f019061261e91906141ad565b8080601f0160208091040260200160405190810160405280939291908181526020018383808284375f81840152601f19601f8201169050808301925050505050505081526020018260200160208101906126789190612bc4565b73ffffffffffffffffffffffffffffffffffffffff1681526020018460028111156126a6576126a5612cbb565b5b81526020015f81526020016001151581525060105f60015481526020019081526020015f205f820151815f015560208201518160010190816126e89190614490565b506040820151816002015f6101000a81548173ffffffffffffffffffffffffffffffffffffffff021916908373ffffffffffffffffffffffffffffffffffffffff16021790555060608201518160020160146101000a81548160ff0219169083600281111561275a57612759612cbb565b5b02179055506080820151816003015560a0820151816004015f6101000a81548160ff0219169083151502179055509050506001547fd1bfac6a4edc52f5e7e8db7d79f9150a0b6905194c43889f25e30ae24b1af69782805f01906127be91906141ad565b866040516127ce9392919061458b565b60405180910390a25080806001019150506123f9565b507f496f9da6d09c7b83e3e4062abba13fe382bebdd64985884daa83466162ab4cc181848490506040516128199291906145bb565b60405180910390a1505050565b5f5f5f90505f600190505b6001548111612900575f60105f8381526020019081526020015f209050806004015f9054906101000a900460ff1615806128a0575084600281111561287957612878612cbb565b5b8160020160149054906101000a900460ff16600281111561289d5761289c612cbb565b5b14155b156128ab57506128ed565b82816003015411806128d857508281600301541480156128d757505f8414806128d6575083815f0154105b5b5b156128eb5780600301549250805f015493505b505b80806128f890613e85565b915050612831565b505f8203612943576040517f08c379a000000000000000000000000000000000000000000000000000000000815260040161293a9061462c565b60405180910390fd5b50919050565b5f5f90505b6007811015612ab8575f5f90505f5f90505f600190505b6001548111612a4c575f60105f8381526020019081526020015f209050806004015f9054906101000a900460ff1615806129d457506002808111156129ad576129ac612cbb565b5b8160020160149054906101000a900460ff1660028111156129d1576129d0612cbb565b5b14155b156129df5750612a39565b6129ec815f015486612abb565b156129f75750612a39565b8281600301541180612a245750828160030154148015612a2357505f841480612a22575083815f0154105b5b5b15612a375780600301549250805f015493505b505b8080612a4490613e85565b915050612965565b505f8203612a8f576040517f08c379a0000000000000000000000000000000000000000000000000000000008152600401612a86906146ba565b60405180910390fd5b8160098460078110612aa457612aa3613849565b5b01819055505050808060010191505061294e565b50565b5f5f5f90505b82811015612afc578360098260078110612ade57612add613849565b5b015403612aef576001915050612b01565b8080600101915050612ac1565b505f90505b92915050565b6040518060c001604052805f8152602001606081526020015f73ffffffffffffffffffffffffffffffffffffffff1681526020015f6002811115612b4e57612b4d612cbb565b5b81526020015f81526020015f151581525090565b5f5ffd5b5f5ffd5b5f73ffffffffffffffffffffffffffffffffffffffff82169050919050565b5f612b9382612b6a565b9050919050565b612ba381612b89565b8114612bad575f5ffd5b50565b5f81359050612bbe81612b9a565b92915050565b5f60208284031215612bd957612bd8612b62565b5b5f612be684828501612bb0565b91505092915050565b5f8115159050919050565b612c0381612bef565b82525050565b5f602082019050612c1c5f830184612bfa565b92915050565b5f819050919050565b612c3481612c22565b8114612c3e575f5ffd5b50565b5f81359050612c4f81612c2b565b92915050565b5f5f60408385031215612c6b57612c6a612b62565b5b5f612c7885828601612c41565b9250506020612c8985828601612c41565b9150509250929050565b612c9c81612c22565b82525050565b5f602082019050612cb55f830184612c93565b92915050565b7f4e487b71000000000000000000000000000000000000000000000000000000005f52602160045260245ffd5b60048110612cf957612cf8612cbb565b5b50565b5f819050612d0982612ce8565b919050565b5f612d1882612cfc565b9050919050565b612d2881612d0e565b82525050565b5f602082019050612d415f830184612d1f565b92915050565b5f60208284031215612d5c57612d5b612b62565b5b5f612d6984828501612c41565b91505092915050565b5f81519050919050565b5f82825260208201905092915050565b8281835e5f83830152505050565b5f601f19601f8301169050919050565b5f612db482612d72565b612dbe8185612d7c565b9350612dce818560208601612d8c565b612dd781612d9a565b840191505092915050565b612deb81612b89565b82525050565b60038110612e0257612e01612cbb565b5b50565b5f819050612e1282612df1565b919050565b5f612e2182612e05565b9050919050565b612e3181612e17565b82525050565b5f60c082019050612e4a5f830189612c93565b8181036020830152612e5c8188612daa565b9050612e6b6040830187612de2565b612e786060830186612e28565b612e856080830185612c93565b612e9260a0830184612bfa565b979650505050505050565b612ea681612c22565b82525050565b5f82825260208201905092915050565b5f612ec682612d72565b612ed08185612eac565b9350612ee0818560208601612d8c565b612ee981612d9a565b840191505092915050565b612efd81612b89565b82525050565b612f0c81612e17565b82525050565b612f1b81612bef565b82525050565b5f60c083015f830151612f365f860182612e9d565b5060208301518482036020860152612f4e8282612ebc565b9150506040830151612f636040860182612ef4565b506060830151612f766060860182612f03565b506080830151612f896080860182612e9d565b5060a0830151612f9c60a0860182612f12565b508091505092915050565b5f6020820190508181035f830152612fbf8184612f21565b905092915050565b5f5ffd5b5f5ffd5b5f5ffd5b5f5f83601f840112612fe857612fe7612fc7565b5b8235905067ffffffffffffffff81111561300557613004612fcb565b5b60208301915083602082028301111561302157613020612fcf565b5b9250929050565b5f5f6020838503121561303e5761303d612b62565b5b5f83013567ffffffffffffffff81111561305b5761305a612b66565b5b61306785828601612fd3565b92509250509250929050565b5f5f83601f84011261308857613087612fc7565b5b8235905067ffffffffffffffff8111156130a5576130a4612fcb565b5b6020830191508360208202830111156130c1576130c0612fcf565b5b9250929050565b5f5f602083850312156130de576130dd612b62565b5b5f83013567ffffffffffffffff8111156130fb576130fa612b66565b5b61310785828601613073565b92509250509250929050565b5f5f83601f84011261312857613127612fc7565b5b8235905067ffffffffffffffff81111561314557613144612fcb565b5b60208301915083600182028301111561316157613160612fcf565b5b9250929050565b5f5f6020838503121561317e5761317d612b62565b5b5f83013567ffffffffffffffff81111561319b5761319a612b66565b5b6131a785828601613113565b92509250509250929050565b5f5f83601f8401126131c8576131c7612fc7565b5b8235905067ffffffffffffffff8111156131e5576131e4612fcb565b5b60208301915083602082028301111561320157613200612fcf565b5b9250929050565b5f5f5f5f606085870312156132205761321f612b62565b5b5f61322d87828801612c41565b945050602061323e87828801612c41565b935050604085013567ffffffffffffffff81111561325f5761325e612b66565b5b61326b878288016131b3565b925092505092959194509250565b5f60208201905061328c5f830184612de2565b92915050565b7f4e6f742061646d696e00000000000000000000000000000000000000000000005f82015250565b5f6132c6600983612d7c565b91506132d182613292565b602082019050919050565b5f6020820190508181035f8301526132f3816132ba565b9050919050565b7f57726f6e672073746174650000000000000000000000000000000000000000005f82015250565b5f61332e600b83612d7c565b9150613339826132fa565b602082019050919050565b5f6020820190508181035f83015261335b81613322565b9050919050565b7f496e76616c69642074696d652072616e676500000000000000000000000000005f82015250565b5f613396601283612d7c565b91506133a182613362565b602082019050919050565b5f6020820190508181035f8301526133c38161338a565b9050919050565b7f456e642074696d65206d75737420626520696e206675747572650000000000005f82015250565b5f6133fe601a83612d7c565b9150613409826133ca565b602082019050919050565b5f6020820190508181035f83015261342b816133f2565b9050919050565b7f526567697374726174696f6e207374696c6c206f70656e0000000000000000005f82015250565b5f613466601783612d7c565b915061347182613432565b602082019050919050565b5f6020820190508181035f8301526134938161345a565b9050919050565b7f566f74696e67206d7573742073746172742061667465722072656769737472615f8201527f74696f6e00000000000000000000000000000000000000000000000000000000602082015250565b5f6134f4602483612d7c565b91506134ff8261349a565b604082019050919050565b5f6020820190508181035f830152613521816134e8565b9050919050565b5f60408201905061353b5f830185612c93565b6135486020830184612c93565b9392505050565b7f566572696669636174696f6e206c6f636b6564000000000000000000000000005f82015250565b5f613583601383612d7c565b915061358e8261354f565b602082019050919050565b5f6020820190508181035f8301526135b081613577565b9050919050565b7f496e76616c6964206164647265737300000000000000000000000000000000005f82015250565b5f6135eb600f83612d7c565b91506135f6826135b7565b602082019050919050565b5f6020820190508181035f830152613618816135df565b9050919050565b7f4e487b71000000000000000000000000000000000000000000000000000000005f52602260045260245ffd5b5f600282049050600182168061366357607f821691505b6020821081036136765761367561361f565b5b50919050565b7f526567697374726174696f6e206e6f74207374617274656400000000000000005f82015250565b5f6136b0601883612d7c565b91506136bb8261367c565b602082019050919050565b5f6020820190508181035f8301526136dd816136a4565b9050919050565b7f526567697374726174696f6e20656e64656400000000000000000000000000005f82015250565b5f613718601283612d7c565b9150613723826136e4565b602082019050919050565b5f6020820190508181035f8301526137458161370c565b9050919050565b7f566f74696e67207374696c6c206f70656e0000000000000000000000000000005f82015250565b5f613780601183612d7c565b915061378b8261374c565b602082019050919050565b5f6020820190508181035f8301526137ad81613774565b9050919050565b7f416c72656164792066696e616c697a65640000000000000000000000000000005f82015250565b5f6137e8601183612d7c565b91506137f3826137b4565b602082019050919050565b5f6020820190508181035f830152613815816137dc565b9050919050565b7f4e487b71000000000000000000000000000000000000000000000000000000005f52604160045260245ffd5b7f4e487b71000000000000000000000000000000000000000000000000000000005f52603260045260245ffd5b5f81519050919050565b5f82825260208201905092915050565b5f819050602082019050919050565b5f6138aa8383612e9d565b60208301905092915050565b5f602082019050919050565b5f6138cc82613876565b6138d68185613880565b93506138e183613890565b805f5b838110156139115781516138f8888261389f565b9750613903836138b6565b9250506001810190506138e4565b5085935050505092915050565b5f6060820190506139315f830186612c93565b61393e6020830185612c93565b818103604083015261395081846138c2565b9050949350505050565b7f4e6f20766f7465727300000000000000000000000000000000000000000000005f82015250565b5f61398e600983612d7c565b91506139998261395a565b602082019050919050565b5f6020820190508181035f8301526139bb81613982565b9050919050565b5f82825260208201905092915050565b5f819050919050565b5f6139e68383612ef4565b60208301905092915050565b5f613a006020840184612bb0565b905092915050565b5f602082019050919050565b5f613a1f83856139c2565b9350613a2a826139d2565b805f5b85811015613a6257613a3f82846139f2565b613a4988826139db565b9750613a5483613a08565b925050600181019050613a2d565b5085925050509392505050565b5f6020820190508181035f830152613a88818486613a14565b90509392505050565b5f81905092915050565b828183375f83830152505050565b5f613ab48385613a91565b9350613ac1838584613a9b565b82840190509392505050565b5f613ad9828486613aa9565b91508190509392505050565b7f566f74696e67206e6f74207374617274656400000000000000000000000000005f82015250565b5f613b19601283612d7c565b9150613b2482613ae5565b602082019050919050565b5f6020820190508181035f830152613b4681613b0d565b9050919050565b7f566f74696e6720656e64656400000000000000000000000000000000000000005f82015250565b5f613b81600c83612d7c565b9150613b8c82613b4d565b602082019050919050565b5f6020820190508181035f830152613bae81613b75565b9050919050565b7f4e6f7420766572696669656400000000000000000000000000000000000000005f82015250565b5f613be9600c83612d7c565b9150613bf482613bb5565b602082019050919050565b5f6020820190508181035f830152613c1681613bdd565b9050919050565b7f416c726561647920766f746564000000000000000000000000000000000000005f82015250565b5f613c51600d83612d7c565b9150613c5c82613c1d565b602082019050919050565b5f6020820190508181035f830152613c7e81613c45565b9050919050565b7f4d7573742073656c6563742037206d656d6265727300000000000000000000005f82015250565b5f613cb9601583612d7c565b9150613cc482613c85565b602082019050919050565b5f6020820190508181035f830152613ce681613cad565b9050919050565b7f4e487b71000000000000000000000000000000000000000000000000000000005f52601160045260245ffd5b5f613d2482612c22565b9150613d2f83612c22565b9250828201905080821115613d4757613d46613ced565b5b92915050565b7f4475706c6963617465206d656d62657220766f746500000000000000000000005f82015250565b5f613d81601583612d7c565b9150613d8c82613d4d565b602082019050919050565b5f6020820190508181035f830152613dae81613d75565b9050919050565b7f496e76616c696420707265736964656e740000000000000000000000000000005f82015250565b5f613de9601183612d7c565b9150613df482613db5565b602082019050919050565b5f6020820190508181035f830152613e1681613ddd565b9050919050565b7f4e6f7420707265736964656e74000000000000000000000000000000000000005f82015250565b5f613e51600d83612d7c565b9150613e5c82613e1d565b602082019050919050565b5f6020820190508181035f830152613e7e81613e45565b9050919050565b5f613e8f82612c22565b91507fffffffffffffffffffffffffffffffffffffffffffffffffffffffffffffffff8203613ec157613ec0613ced565b5b600182019050919050565b7f496e76616c6964207365637265746172790000000000000000000000000000005f82015250565b5f613f00601183612d7c565b9150613f0b82613ecc565b602082019050919050565b5f6020820190508181035f830152613f2d81613ef4565b9050919050565b7f4e6f7420736563726574617279000000000000000000000000000000000000005f82015250565b5f613f68600d83612d7c565b9150613f7382613f34565b602082019050919050565b5f6020820190508181035f830152613f9581613f5c565b9050919050565b7f496e76616c6964206d656d6265720000000000000000000000000000000000005f82015250565b5f613fd0600e83612d7c565b9150613fdb82613f9c565b602082019050919050565b5f6020820190508181035f830152613ffd81613fc4565b9050919050565b7f4e6f74206d656d626572000000000000000000000000000000000000000000005f82015250565b5f614038600a83612d7c565b915061404382614004565b602082019050919050565b5f6020820190508181035f8301526140658161402c565b9050919050565b5f5ffd5b82818337505050565b5f6140848385613880565b93507f07ffffffffffffffffffffffffffffffffffffffffffffffffffffffffffffff8311156140b7576140b661406c565b5b6020830292506140c8838584614070565b82840190509392505050565b5f6060820190506140e75f830187612c93565b6140f46020830186612c93565b8181036040830152614107818486614079565b905095945050505050565b7f4e6f2063616e64696461746573000000000000000000000000000000000000005f82015250565b5f614146600d83612d7c565b915061415182614112565b602082019050919050565b5f6020820190508181035f8301526141738161413a565b9050919050565b5f5ffd5b5f5ffd5b5f5ffd5b5f823560016040038336030381126141a1576141a061417a565b5b80830191505092915050565b5f5f833560016020038436030381126141c9576141c861417a565b5b80840192508235915067ffffffffffffffff8211156141eb576141ea61417e565b5b60208301925060018202360383131561420757614206614182565b5b509250929050565b7f456d7074792047554944000000000000000000000000000000000000000000005f82015250565b5f614243600a83612d7c565b915061424e8261420f565b602082019050919050565b5f6020820190508181035f83015261427081614237565b9050919050565b7f4755494420616c726561647920726567697374657265640000000000000000005f82015250565b5f6142ab601783612d7c565b91506142b682614277565b602082019050919050565b5f6020820190508181035f8301526142d88161429f565b9050919050565b5f819050815f5260205f209050919050565b5f6020601f8301049050919050565b5f82821b905092915050565b5f6008830261433b7fffffffffffffffffffffffffffffffffffffffffffffffffffffffffffffffff82614300565b6143458683614300565b95508019841693508086168417925050509392505050565b5f819050919050565b5f61438061437b61437684612c22565b61435d565b612c22565b9050919050565b5f819050919050565b61439983614366565b6143ad6143a582614387565b84845461430c565b825550505050565b5f5f905090565b6143c46143b5565b6143cf818484614390565b505050565b5f5b828110156143f5576143ea5f8284016143bc565b6001810190506143d6565b505050565b601f821115614448578282111561444757614414816142df565b61441d836142f1565b614426856142f1565b6020861015614433575f90505b808301614442828403826143d4565b505050505b5b505050565b5f82821c905092915050565b5f6144685f198460080261444d565b1980831691505092915050565b5f6144808383614459565b9150826002028217905092915050565b61449982612d72565b67ffffffffffffffff8111156144b2576144b161381c565b5b6144bc825461364c565b6144c78282856143fa565b5f60209050601f8311600181146144f8575f84156144e6578287015190505b6144f08582614475565b865550614557565b601f198416614506866142df565b5f5b8281101561452d57848901518255600182019150602085019450602081019050614508565b8683101561454a5784890151614546601f891682614459565b8355505b6001600288020188555050505b505050505050565b5f61456a8385612d7c565b9350614577838584613a9b565b61458083612d9a565b840190509392505050565b5f6040820190508181035f8301526145a481858761455f565b90506145b36020830184612e28565b949350505050565b5f6040820190506145ce5f830185612e28565b6145db6020830184612c93565b9392505050565b7f4e6f2063616e64696461746520666f7220706f736974696f6e000000000000005f82015250565b5f614616601983612d7c565b9150614621826145e2565b602082019050919050565b5f6020820190508181035f8301526146438161460a565b9050919050565b7f4e6f7420656e6f7567682067656e6572616c206d656d6265722063616e6469645f8201527f6174657300000000000000000000000000000000000000000000000000000000602082015250565b5f6146a4602483612d7c565b91506146af8261464a565b604082019050919050565b5f6020820190508181035f8301526146d181614698565b905091905056fea26469706673582212208c9e9095a7c4f19bb983e467b24eee6f9f071957a65acd9f168e5ff15b17752764736f6c63430008230033","linkReferences":{}},"methodIdentifiers":{"GENERAL_MEMBERS_ELECTED()":"9e225d84","admin()":"f851a440","candidateCount()":"a9a981a3","candidates(uint256)":"3477ee2e","electionState()":"2280043d","finalizeElection()":"6cc6837e","generalMemberCount()":"144f0b3c","generalMemberWinnerIds(uint256)":"be279a0f","getCandidate(uint256)":"35b8e820","hasVoted(address)":"09eef43e","isGuidRegistered(string)":"9eab143b","isVerified(address)":"b9209e33","presidentCount()":"a3e152dc","presidentWinnerId()":"e9dbe5ce","registerGeneralMembers((string,address)[])":"36105941","registerPresidentCandidates((string,address)[])":"6a6f07fa","registerSecretaryCandidates((string,address)[])":"7c2c31aa","registrationEndTime()":"dff7d2c7","registrationStartTime()":"9af5c09d","resultsFinalized()":"170773a5","revokeVoter(address)":"2a1fac16","secretaryCount()":"d971bd86","secretaryWinnerId()":"e09f3dd6","startElection(uint256,uint256)":"0c54b463","startRegistration(uint256,uint256)":"5eddaff1","verificationLocked()":"4c65811a","verifiedVoters(address)":"f68ad2b1","verifyVoters(address[])":"9db913b1","vote(uint256,uint256,uint256[])":"e1349bd7","votingEndTime()":"1ea736e0","votingStartTime()":"2019a608"},"id":21}