{"abi":[{"type":"constructor","inputs":[{"name":"_merkleRoot","type":"bytes32","internalType":"bytes32"}],"stateMutability":"nonpayable"},{"type":"function","name":"GENERAL_MEMBERS_ELECTED","inputs":[],"outputs":[{"name":"","type":"uint256","internalType":"uint256"}],"stateMutability":"view"},{"type":"function","name":"admin","inputs":[],"outputs":[{"name":"","type":"address","internalType":"address"}],"stateMutability":"view"},{"type":"function","name":"candidateCount","inputs":[],"outputs":[{"name":"","type":"uint256","internalType":"uint256"}],"stateMutability":"view"},{"type":"function","name":"candidateRegisteredInElection","inputs":[{"name":"","type":"address","internalType":"address"}],"outputs":[{"name":"","type":"uint256","internalType":"uint256"}],"stateMutability":"view"},{"type":"function","name":"candidates","inputs":[{"name":"","type":"uint256","internalType":"uint256"}],"outputs":[{"name":"id","type":"uint256","internalType":"uint256"},{"name":"name","type":"string","internalType":"string"},{"name":"studentId","type":"string","internalType":"string"},{"name":"year","type":"uint8","internalType":"uint8"},{"name":"isFemale","type":"bool","internalType":"bool"},{"name":"imageCID","type":"string","internalType":"string"},{"name":"position","type":"uint8","internalType":"enum Election3.Position"},{"name":"voteCount","type":"uint256","internalType":"uint256"},{"name":"exists","type":"bool","internalType":"bool"}],"stateMutability":"view"},{"type":"function","name":"castVote","inputs":[{"name":"_presidentId","type":"uint256","internalType":"uint256"},{"name":"_secretaryId","type":"uint256","internalType":"uint256"},{"name":"_gmIds","type":"uint256[]","internalType":"uint256[]"},{"name":"_proof","type":"bytes32[]","internalType":"bytes32[]"}],"outputs":[],"stateMutability":"nonpayable"},{"type":"function","name":"currentElectionId","inputs":[],"outputs":[{"name":"","type":"uint256","internalType":"uint256"}],"stateMutability":"view"},{"type":"function","name":"electionHistory","inputs":[{"name":"","type":"uint256","internalType":"uint256"}],"outputs":[{"name":"presidentWinnerId","type":"uint256","internalType":"uint256"},{"name":"secretaryWinnerId","type":"uint256","internalType":"uint256"},{"name":"totalCandidates","type":"uint256","internalType":"uint256"},{"name":"timestamp","type":"uint256","internalType":"uint256"}],"stateMutability":"view"},{"type":"function","name":"endElection","inputs":[],"outputs":[],"stateMutability":"nonpayable"},{"type":"function","name":"getCandidate","inputs":[{"name":"_id","type":"uint256","internalType":"uint256"}],"outputs":[{"name":"","type":"tuple","internalType":"struct Election3.Candidate","components":[{"name":"id","type":"uint256","internalType":"uint256"},{"name":"name","type":"string","internalType":"string"},{"name":"studentId","type":"string","internalType":"string"},{"name":"year","type":"uint8","internalType":"uint8"},{"name":"isFemale","type":"bool","internalType":"bool"},{"name":"imageCID","type":"string","internalType":"string"},{"name":"position","type":"uint8","internalType":"enum Election3.Position"},{"name":"voteCount","type":"uint256","internalType":"uint256"},{"name":"exists","type":"bool","internalType":"bool"}]}],"stateMutability":"view"},{"type":"function","name":"getElectionResult","inputs":[{"name":"_index","type":"uint256","internalType":"uint256"}],"outputs":[{"name":"","type":"tuple","internalType":"struct Election3.ElectionResult","components":[{"name":"presidentWinnerId","type":"uint256","internalType":"uint256"},{"name":"secretaryWinnerId","type":"uint256","internalType":"uint256"},{"name":"generalMemberWinnerIds","type":"uint256[5]","internalType":"uint256[5]"},{"name":"totalCandidates","type":"uint256","internalType":"uint256"},{"name":"timestamp","type":"uint256","internalType":"uint256"}]}],"stateMutability":"view"},{"type":"function","name":"getPhase","inputs":[],"outputs":[{"name":"","type":"uint8","internalType":"enum Election3.Phase"}],"stateMutability":"view"},{"type":"function","name":"hasVoted","inputs":[{"name":"_voter","type":"address","internalType":"address"}],"outputs":[{"name":"","type":"bool","internalType":"bool"}],"stateMutability":"view"},{"type":"function","name":"historyCount","inputs":[],"outputs":[{"name":"","type":"uint256","internalType":"uint256"}],"stateMutability":"view"},{"type":"function","name":"identityMerkleRoot","inputs":[],"outputs":[{"name":"","type":"bytes32","internalType":"bytes32"}],"stateMutability":"view"},{"type":"function","name":"phase","inputs":[],"outputs":[{"name":"","type":"uint8","internalType":"enum Election3.Phase"}],"stateMutability":"view"},{"type":"function","name":"registerCandidate","inputs":[{"name":"_guid","type":"string","internalType":"string"},{"name":"_name","type":"string","internalType":"string"},{"name":"_year","type":"uint8","internalType":"uint8"},{"name":"_isFemale","type":"bool","internalType":"bool"},{"name":"_imageCID","type":"string","internalType":"string"},{"name":"_position","type":"uint8","internalType":"enum Election3.Position"},{"name":"_proof","type":"bytes32[]","internalType":"bytes32[]"}],"outputs":[],"stateMutability":"nonpayable"},{"type":"function","name":"registrationEnd","inputs":[],"outputs":[{"name":"","type":"uint256","internalType":"uint256"}],"stateMutability":"view"},{"type":"function","name":"setIdentityMerkleRoot","inputs":[{"name":"_root","type":"bytes32","internalType":"bytes32"}],"outputs":[],"stateMutability":"nonpayable"},{"type":"function","name":"setMerkleRoot","inputs":[{"name":"_merkleRoot","type":"bytes32","internalType":"bytes32"}],"outputs":[],"stateMutability":"nonpayable"},{"type":"function","name":"startNewElection","inputs":[],"outputs":[],"stateMutability":"nonpayable"},{"type":"function","name":"startRegistration","inputs":[{"name":"_end","type":"uint256","internalType":"uint256"}],"outputs":[],"stateMutability":"nonpayable"},{"type":"function","name":"startVoting","inputs":[{"name":"_end","type":"uint256","internalType":"uint256"}],"outputs":[],"stateMutability":"nonpayable"},{"type":"function","name":"vote","inputs":[{"name":"_candidateId","type":"uint256","internalType":"uint256"},{"name":"_proof","type":"bytes32[]","internalType":"bytes32[]"}],"outputs":[],"stateMutability":"nonpayable"},{"type":"function","name":"votedInElection","inputs":[{"name":"","type":"address","internalType":"address"}],"outputs":[{"name":"","type":"uint256","internalType":"uint256"}],"stateMutability":"view"},{"type":"function","name":"voterMerkleRoot","inputs":[],"outputs":[{"name":"","type":"bytes32","internalType":"bytes32"}],"stateMutability":"view"},{"type":"function","name":"votingEnd","inputs":[],"outputs":[{"name":"","type":"uint256","internalType":"uint256"}],"stateMutability":"view"},{"type":"event","name":"BallotCast","inputs":[{"name":"voter","type":"address","indexed":true,"internalType":"address"},{"name":"presId","type":"uint256","indexed":false,"internalType":"uint256"},{"name":"secId","type":"uint256","indexed":false,"internalType":"uint256"},{"name":"gmIds","type":"uint256[]","indexed":false,"internalType":"uint256[]"}],"anonymous":false},{"type":"event","name":"CandidateRegistered","inputs":[{"name":"id","type":"uint256","indexed":true,"internalType":"uint256"},{"name":"candidate","type":"address","indexed":true,"internalType":"address"},{"name":"name","type":"string","indexed":false,"internalType":"string"},{"name":"position","type":"uint8","indexed":false,"internalType":"enum Election3.Position"},{"name":"imageCID","type":"string","indexed":false,"internalType":"string"}],"anonymous":false},{"type":"event","name":"IdentityMerkleRootUpdated","inputs":[{"name":"newRoot","type":"bytes32","indexed":false,"internalType":"bytes32"}],"anonymous":false},{"type":"event","name":"MerkleRootUpdated","inputs":[{"name":"newRoot","type":"bytes32","indexed":false,"internalType":"bytes32"}],"anonymous":false},{"type":"event","name":"NewElectionStarted","inputs":[{"name":"electionId","type":"uint256","indexed":true,"internalType":"uint256"}],"anonymous":false},{"type":"event","name":"PhaseChanged","inputs":[{"name":"newPhase","type":"uint8","indexed":false,"internalType":"enum Election3.Phase"}],"anonymous":false},{"type":"event","name":"VoteCast","inputs":[{"name":"voter","type":"address","indexed":true,"internalType":"address"},{"name":"candidateId","type":"uint256","indexed":false,"internalType":"uint256"}],"anonymous":false}],"bytecode":{"object":"0x608060405234801561000f575f5ffd5b50604051614a5c380380614a5c833981810160405281019061003191906100e5565b335f5f6101000a81548173ffffffffffffffffffffffffffffffffffffffff021916908373ffffffffffffffffffffffffffffffffffffffff1602179055508060058190555060016004819055505f5f60146101000a81548160ff021916908360038111156100a3576100a2610110565b5b02179055505061013d565b5f5ffd5b5f819050919050565b6100c4816100b2565b81146100ce575f5ffd5b50565b5f815190506100df816100bb565b92915050565b5f602082840312156100fa576100f96100ae565b5b5f610107848285016100d1565b91505092915050565b7f4e487b71000000000000000000000000000000000000000000000000000000005f52602160045260245ffd5b6149128061014a5f395ff3fe608060405234801561000f575f5ffd5b50600436106101a7575f3560e01c80636e38d032116100f7578063a9a981a311610095578063c27a58aa1161006f578063c27a58aa146104a0578063eced0280146104d0578063f851a440146104ee578063fd27419b1461050c576101a7565b8063a9a981a314610448578063acf46e8214610466578063b1c9fe6e14610482576101a7565b806385a38635116100d157806385a38635146103d05780638cb1b354146103ee57806398ecf2a01461040c5780639e225d841461042a576101a7565b80636e38d03214610368578063797dd1f2146103845780637cb64759146103b4576101a7565b806335b8e820116101645780633d2f5bda1161013e5780633d2f5bda1461031c57806347f33fb51461033857806358e930c81461034257806359f784681461035e576101a7565b806335b8e8201461029b57806335da4271146102cb5780633a9c9ffc146102fe576101a7565b806309eef43e146101ab57806313446a75146101db57806323fc4b36146101f95780632a69fb46146102295780632ed1f9b5146102475780633477ee2e14610263575b5f5ffd5b6101c560048036038101906101c09190612bcb565b610528565b6040516101d29190612c10565b60405180910390f35b6101e3610572565b6040516101f09190612c41565b60405180910390f35b610213600480360381019061020e9190612c84565b610578565b6040516102209190612dbc565b60405180910390f35b61023161060f565b60405161023e9190612dee565b60405180910390f35b610261600480360381019061025c9190612c84565b610615565b005b61027d60048036038101906102789190612c84565b610801565b60405161029299989796959493929190612f05565b60405180910390f35b6102b560048036038101906102b09190612c84565b610a0e565b6040516102c291906130ea565b60405180910390f35b6102e560048036038101906102e09190612c84565b610c88565b6040516102f5949392919061310a565b60405180910390f35b610306610cb4565b6040516103139190612c41565b60405180910390f35b61033660048036038101906103319190612c84565b610cba565b005b610340610eb0565b005b61035c6004803603810190610357919061334d565b6112aa565b005b6103666117ae565b005b610382600480360381019061037d9190613488565b61195a565b005b61039e60048036038101906103999190612bcb565b611a29565b6040516103ab9190612c41565b60405180910390f35b6103ce60048036038101906103c99190613488565b611a3e565b005b6103d8611b0d565b6040516103e59190612c41565b60405180910390f35b6103f6611b13565b6040516104039190612dee565b60405180910390f35b610414611b19565b6040516104219190612c41565b60405180910390f35b610432611b1f565b60405161043f9190612c41565b60405180910390f35b610450611b24565b60405161045d9190612c41565b60405180910390f35b610480600480360381019061047b9190613508565b611b2a565b005b61048a61229d565b60405161049791906135f1565b60405180910390f35b6104ba60048036038101906104b59190612bcb565b6122af565b6040516104c79190612c41565b60405180910390f35b6104d86122c4565b6040516104e591906135f1565b60405180910390f35b6104f66122d9565b6040516105039190613619565b60405180910390f35b61052660048036038101906105219190613632565b6122fd565b005b5f60045460085f8473ffffffffffffffffffffffffffffffffffffffff1673ffffffffffffffffffffffffffffffffffffffff1681526020019081526020015f2054149050919050565b60015481565b610580612aae565b600a5f8381526020019081526020015f206040518060a00160405290815f820154815260200160018201548152602001600282016005806020026040519081016040528092919082600580156105eb576020028201915b8154815260200190600101908083116105d7575b50505050508152602001600782015481526020016008820154815250509050919050565b60055481565b5f5f9054906101000a900473ffffffffffffffffffffffffffffffffffffffff1673ffffffffffffffffffffffffffffffffffffffff163373ffffffffffffffffffffffffffffffffffffffff16146106a3576040517f08c379a000000000000000000000000000000000000000000000000000000000815260040161069a906136d9565b60405180910390fd5b5f60038111156106b6576106b5612e92565b5b5f60149054906101000a900460ff1660038111156106d7576106d6612e92565b5b148061071457506003808111156106f1576106f0612e92565b5b5f60149054906101000a900460ff16600381111561071257610711612e92565b5b145b610753576040517f08c379a000000000000000000000000000000000000000000000000000000000815260040161074a90613741565b60405180910390fd5b428111610795576040517f08c379a000000000000000000000000000000000000000000000000000000000815260040161078c906137a9565b60405180910390fd5b60015f60146101000a81548160ff021916908360038111156107ba576107b9612e92565b5b0217905550806001819055507fa6dcc92f45df25789d5639b7a0c97ba1edf3bb1c0b5dd3376fd96a0db87c464260016040516107f691906135f1565b60405180910390a150565b6007602052805f5260405f205f91509050805f015490806001018054610826906137f4565b80601f0160208091040260200160405190810160405280929190818152602001828054610852906137f4565b801561089d5780601f106108745761010080835404028352916020019161089d565b820191905f5260205f20905b81548152906001019060200180831161088057829003601f168201915b5050505050908060020180546108b2906137f4565b80601f01602080910402602001604051908101604052809291908181526020018280546108de906137f4565b80156109295780601f1061090057610100808354040283529160200191610929565b820191905f5260205f20905b81548152906001019060200180831161090c57829003601f168201915b505050505090806003015f9054906101000a900460ff16908060030160019054906101000a900460ff1690806004018054610963906137f4565b80601f016020809104026020016040519081016040528092919081815260200182805461098f906137f4565b80156109da5780601f106109b1576101008083540402835291602001916109da565b820191905f5260205f20905b8154815290600101906020018083116109bd57829003601f168201915b505050505090806005015f9054906101000a900460ff1690806006015490806007015f9054906101000a900460ff16905089565b610a16612adf565b60075f8381526020019081526020015f20604051806101200160405290815f8201548152602001600182018054610a4c906137f4565b80601f0160208091040260200160405190810160405280929190818152602001828054610a78906137f4565b8015610ac35780601f10610a9a57610100808354040283529160200191610ac3565b820191905f5260205f20905b815481529060010190602001808311610aa657829003601f168201915b50505050508152602001600282018054610adc906137f4565b80601f0160208091040260200160405190810160405280929190818152602001828054610b08906137f4565b8015610b535780601f10610b2a57610100808354040283529160200191610b53565b820191905f5260205f20905b815481529060010190602001808311610b3657829003601f168201915b50505050508152602001600382015f9054906101000a900460ff1660ff1660ff1681526020016003820160019054906101000a900460ff16151515158152602001600482018054610ba3906137f4565b80601f0160208091040260200160405190810160405280929190818152602001828054610bcf906137f4565b8015610c1a5780601f10610bf157610100808354040283529160200191610c1a565b820191905f5260205f20905b815481529060010190602001808311610bfd57829003601f168201915b50505050508152602001600582015f9054906101000a900460ff166002811115610c4757610c46612e92565b5b6002811115610c5957610c58612e92565b5b815260200160068201548152602001600782015f9054906101000a900460ff1615151515815250509050919050565b600a602052805f5260405f205f91509050805f0154908060010154908060070154908060080154905084565b600b5481565b5f5f9054906101000a900473ffffffffffffffffffffffffffffffffffffffff1673ffffffffffffffffffffffffffffffffffffffff163373ffffffffffffffffffffffffffffffffffffffff1614610d48576040517f08c379a0000000000000000000000000000000000000000000000000000000008152600401610d3f906136d9565b60405180910390fd5b60016003811115610d5c57610d5b612e92565b5b5f60149054906101000a900460ff166003811115610d7d57610d7c612e92565b5b14610dbd576040517f08c379a0000000000000000000000000000000000000000000000000000000008152600401610db49061386e565b60405180910390fd5b600154421015610e02576040517f08c379a0000000000000000000000000000000000000000000000000000000008152600401610df9906138d6565b60405180910390fd5b428111610e44576040517f08c379a0000000000000000000000000000000000000000000000000000000008152600401610e3b906137a9565b60405180910390fd5b60025f60146101000a81548160ff02191690836003811115610e6957610e68612e92565b5b0217905550806002819055507fa6dcc92f45df25789d5639b7a0c97ba1edf3bb1c0b5dd3376fd96a0db87c46426002604051610ea591906135f1565b60405180910390a150565b5f5f9054906101000a900473ffffffffffffffffffffffffffffffffffffffff1673ffffffffffffffffffffffffffffffffffffffff163373ffffffffffffffffffffffffffffffffffffffff1614610f3e576040517f08c379a0000000000000000000000000000000000000000000000000000000008152600401610f35906136d9565b60405180910390fd5b6003806003811115610f5357610f52612e92565b5b5f60149054906101000a900460ff166003811115610f7457610f73612e92565b5b14610fb4576040517f08c379a0000000000000000000000000000000000000000000000000000000008152600401610fab9061393e565b60405180910390fd5b5f60035411610ff8576040517f08c379a0000000000000000000000000000000000000000000000000000000008152600401610fef906139a6565b60405180910390fd5b5f6110025f612611565b90505f61100f6001612611565b90505f5f5f600190505b60035481116110ef5760075f8281526020019081526020015f206007015f9054906101000a900460ff168015611092575060028081111561105d5761105c612e92565b5b60075f8381526020019081526020015f206005015f9054906101000a900460ff1660028111156110905761108f612e92565b5b145b156110dc5782806110a2906139f1565b93505060075f8281526020019081526020015f2060030160019054906101000a900460ff16156110db5781806110d7906139f1565b9250505b5b80806110e7906139f1565b915050611019565b505f82111561118157600582101561113c576040517f08c379a000000000000000000000000000000000000000000000000000000000815260040161113390613a82565b60405180910390fd5b6002811015611180576040517f08c379a000000000000000000000000000000000000000000000000000000000815260040161117790613b10565b60405180910390fd5b5b5f61118a6126ee565b90506040518060a00160405280868152602001858152602001828152602001600354815260200142815250600a5f600b5481526020019081526020015f205f820151815f01556020820151816001015560408201518160020190816111ef9190613cde565b506060820151816007015560808201518160080155905050600b5f815480929190611219906139f1565b919050555060045f815480929190611230906139f1565b91905055505f6003819055505f5f60146101000a81548160ff021916908360038111156112605761125f612e92565b5b02179055505f6001819055505f6002819055506004547f55c3cae3ec819b66218c64911b87eb1e29c1e3ce9f6d1f4a30b463db13e9090960405160405180910390a2505050505050565b60018060038111156112bf576112be612e92565b5b5f60149054906101000a900460ff1660038111156112e0576112df612e92565b5b14611320576040517f08c379a00000000000000000000000000000000000000000000000000000000081526004016113179061393e565b60405180910390fd5b600154421115611365576040517f08c379a000000000000000000000000000000000000000000000000000000000815260040161135c90613dac565b60405180910390fd5b60045460095f3373ffffffffffffffffffffffffffffffffffffffff1673ffffffffffffffffffffffffffffffffffffffff1681526020019081526020015f2054036113e6576040517f08c379a00000000000000000000000000000000000000000000000000000000081526004016113dd90613e14565b60405180910390fd5b5f338989896040516020016113fe9493929190613f0d565b6040516020818303038152906040528051906020012090506114638484808060200260200160405190810160405280939291908181526020018383602002808284375f81840152601f19601f8201169050808301925050505050505060065483612a09565b6114a2576040517f08c379a000000000000000000000000000000000000000000000000000000000815260040161149990613fa0565b60405180910390fd5b5f60028111156114b5576114b4612e92565b5b8560028111156114c8576114c7612e92565b5b036115185760048860ff1614611513576040517f08c379a000000000000000000000000000000000000000000000000000000000815260040161150a90614008565b60405180910390fd5b61159d565b6001600281111561152c5761152b612e92565b5b85600281111561153f5761153e612e92565b5b0361159c5760038860ff161015801561155c575060048860ff1611155b61159b576040517f08c379a000000000000000000000000000000000000000000000000000000000815260040161159290614096565b60405180910390fd5b5b5b60035f8154809291906115af906139f1565b919050555060405180610120016040528060035481526020018a81526020018b81526020018960ff16815260200188151581526020018781526020018660028111156115fe576115fd612e92565b5b81526020015f81526020016001151581525060075f60035481526020019081526020015f205f820151815f015560208201518160010190816116409190614185565b5060408201518160020190816116569190614185565b506060820151816003015f6101000a81548160ff021916908360ff16021790555060808201518160030160016101000a81548160ff02191690831515021790555060a08201518160040190816116ac9190614185565b5060c0820151816005015f6101000a81548160ff021916908360028111156116d7576116d6612e92565b5b021790555060e08201518160060155610100820151816007015f6101000a81548160ff02191690831515021790555090505060045460095f3373ffffffffffffffffffffffffffffffffffffffff1673ffffffffffffffffffffffffffffffffffffffff1681526020019081526020015f20819055503373ffffffffffffffffffffffffffffffffffffffff166003547ff721a4e933ede8c3537b58861216e9cd34966866a9c0a3d102bd8294fd8c37f88b888a60405161179a93929190614254565b60405180910390a350505050505050505050565b5f5f9054906101000a900473ffffffffffffffffffffffffffffffffffffffff1673ffffffffffffffffffffffffffffffffffffffff163373ffffffffffffffffffffffffffffffffffffffff161461183c576040517f08c379a0000000000000000000000000000000000000000000000000000000008152600401611833906136d9565b60405180910390fd5b600260038111156118505761184f612e92565b5b5f60149054906101000a900460ff16600381111561187157611870612e92565b5b146118b1576040517f08c379a00000000000000000000000000000000000000000000000000000000081526004016118a8906142e1565b60405180910390fd5b6002544210156118f6576040517f08c379a00000000000000000000000000000000000000000000000000000000081526004016118ed90614349565b60405180910390fd5b60035f60146101000a81548160ff0219169083600381111561191b5761191a612e92565b5b02179055507fa6dcc92f45df25789d5639b7a0c97ba1edf3bb1c0b5dd3376fd96a0db87c4642600360405161195091906135f1565b60405180910390a1565b5f5f9054906101000a900473ffffffffffffffffffffffffffffffffffffffff1673ffffffffffffffffffffffffffffffffffffffff163373ffffffffffffffffffffffffffffffffffffffff16146119e8576040517f08c379a00000000000000000000000000000000000000000000000000000000081526004016119df906136d9565b60405180910390fd5b806006819055507f152210672c2549e6214d76c4c341f316ffeefdc783b6845dbf1a3330ed3d120481604051611a1e9190612dee565b60405180910390a150565b6008602052805f5260405f205f915090505481565b5f5f9054906101000a900473ffffffffffffffffffffffffffffffffffffffff1673ffffffffffffffffffffffffffffffffffffffff163373ffffffffffffffffffffffffffffffffffffffff1614611acc576040517f08c379a0000000000000000000000000000000000000000000000000000000008152600401611ac3906136d9565b60405180910390fd5b806005819055507f90004c04698bc3322499a575ed3752dd4abf33e0a7294c06a787a0fe01bea94181604051611b029190612dee565b60405180910390a150565b60025481565b60065481565b60045481565b600581565b60035481565b6002806003811115611b3f57611b3e612e92565b5b5f60149054906101000a900460ff166003811115611b6057611b5f612e92565b5b14611ba0576040517f08c379a0000000000000000000000000000000000000000000000000000000008152600401611b979061393e565b60405180910390fd5b600254421115611be5576040517f08c379a0000000000000000000000000000000000000000000000000000000008152600401611bdc906143b1565b60405180910390fd5b60045460085f3373ffffffffffffffffffffffffffffffffffffffff1673ffffffffffffffffffffffffffffffffffffffff1681526020019081526020015f205403611c66576040517f08c379a0000000000000000000000000000000000000000000000000000000008152600401611c5d90614419565b60405180910390fd5b5f33604051602001611c789190614437565b604051602081830303815290604052805190602001209050611cdd8484808060200260200160405190810160405280939291908181526020018383602002808284375f81840152601f19601f8201169050808301925050505050505060055483612a09565b611d1c576040517f08c379a0000000000000000000000000000000000000000000000000000000008152600401611d139061449b565b60405180910390fd5b5f5f891115611e3f575f60075f8b81526020019081526020015f209050806007015f9054906101000a900460ff168015611d8957505f6002811115611d6457611d63612e92565b5b816005015f9054906101000a900460ff166002811115611d8757611d86612e92565b5b145b611dc8576040517f08c379a0000000000000000000000000000000000000000000000000000000008152600401611dbf90614503565b60405180910390fd5b806006015f815480929190611ddc906139f1565b91905055503373ffffffffffffffffffffffffffffffffffffffff167fa36cc2bebb74db33e9f88110a07ef56e1b31b24b4c4f51b54b1664266e29f45b8b604051611e279190612c41565b60405180910390a28180611e3a906139f1565b925050505b5f881115611f62575f60075f8a81526020019081526020015f209050806007015f9054906101000a900460ff168015611eac575060016002811115611e8757611e86612e92565b5b816005015f9054906101000a900460ff166002811115611eaa57611ea9612e92565b5b145b611eeb576040517f08c379a0000000000000000000000000000000000000000000000000000000008152600401611ee29061456b565b60405180910390fd5b806006015f815480929190611eff906139f1565b91905055503373ffffffffffffffffffffffffffffffffffffffff167fa36cc2bebb74db33e9f88110a07ef56e1b31b24b4c4f51b54b1664266e29f45b8a604051611f4a9190612c41565b60405180910390a28180611f5d906139f1565b925050505b6005878790501115611fa9576040517f08c379a0000000000000000000000000000000000000000000000000000000008152600401611fa0906145d3565b60405180910390fd5b5f5f5f90505b88889050811015612166575f898983818110611fce57611fcd6145f1565b5b9050602002013590505f8111612019576040517f08c379a000000000000000000000000000000000000000000000000000000000815260040161201090614668565b60405180910390fd5b5f60075f8381526020019081526020015f209050806007015f9054906101000a900460ff16801561207d575060028081111561205857612057612e92565b5b816005015f9054906101000a900460ff16600281111561207b5761207a612e92565b5b145b6120bc576040517f08c379a00000000000000000000000000000000000000000000000000000000081526004016120b3906146d0565b60405180910390fd5b8060030160019054906101000a900460ff16156120e25783806120de906139f1565b9450505b806006015f8154809291906120f6906139f1565b91905055503373ffffffffffffffffffffffffffffffffffffffff167fa36cc2bebb74db33e9f88110a07ef56e1b31b24b4c4f51b54b1664266e29f45b836040516121419190612c41565b60405180910390a28480612154906139f1565b95505050508080600101915050611faf565b505f8888905011156121b75760028110156121b6576040517f08c379a00000000000000000000000000000000000000000000000000000000081526004016121ad90614738565b60405180910390fd5b5b5f82116121f9576040517f08c379a00000000000000000000000000000000000000000000000000000000081526004016121f0906147a0565b60405180910390fd5b60045460085f3373ffffffffffffffffffffffffffffffffffffffff1673ffffffffffffffffffffffffffffffffffffffff1681526020019081526020015f20819055503373ffffffffffffffffffffffffffffffffffffffff167fe3247bcd60937953a15c7fb3f0105170d7589290d64b69172eb927ca5e24bc8b8b8b8b8b6040516122899493929190614836565b60405180910390a250505050505050505050565b5f60149054906101000a900460ff1681565b6009602052805f5260405f205f915090505481565b5f5f60149054906101000a900460ff16905090565b5f5f9054906101000a900473ffffffffffffffffffffffffffffffffffffffff1681565b600280600381111561231257612311612e92565b5b5f60149054906101000a900460ff16600381111561233357612332612e92565b5b14612373576040517f08c379a000000000000000000000000000000000000000000000000000000000815260040161236a9061393e565b60405180910390fd5b6002544211156123b8576040517f08c379a00000000000000000000000000000000000000000000000000000000081526004016123af906143b1565b60405180910390fd5b60045460085f3373ffffffffffffffffffffffffffffffffffffffff1673ffffffffffffffffffffffffffffffffffffffff1681526020019081526020015f205403612439576040517f08c379a000000000000000000000000000000000000000000000000000000000815260040161243090614419565b60405180910390fd5b60075f8581526020019081526020015f206007015f9054906101000a900460ff16612499576040517f08c379a0000000000000000000000000000000000000000000000000000000008152600401612490906148be565b60405180910390fd5b5f336040516020016124ab9190614437565b6040516020818303038152906040528051906020012090506125108484808060200260200160405190810160405280939291908181526020018383602002808284375f81840152601f19601f8201169050808301925050505050505060055483612a09565b61254f576040517f08c379a00000000000000000000000000000000000000000000000000000000081526004016125469061449b565b60405180910390fd5b60045460085f3373ffffffffffffffffffffffffffffffffffffffff1673ffffffffffffffffffffffffffffffffffffffff1681526020019081526020015f208190555060075f8681526020019081526020015f206006015f8154809291906125b7906139f1565b91905055503373ffffffffffffffffffffffffffffffffffffffff167fa36cc2bebb74db33e9f88110a07ef56e1b31b24b4c4f51b54b1664266e29f45b866040516126029190612c41565b60405180910390a25050505050565b5f5f5f600190505b60035481116126e7575f60075f8381526020019081526020015f209050806007015f9054906101000a900460ff161580612687575084600281111561266157612660612e92565b5b816005015f9054906101000a900460ff16600281111561268457612683612e92565b5b14155b1561269257506126d4565b82816006015411806126bf57508281600601541480156126be57505f8414806126bd575083815f0154105b5b5b156126d25780600601549250805f015493505b505b80806126df906139f1565b915050612619565b5050919050565b6126f6612b3e565b5f5f5f90505b600281101561288a575f5f5f600190505b6003548111612849575f60075f8381526020019081526020015f209050806007015f9054906101000a900460ff16158061277b575060028081111561275557612754612e92565b5b816005015f9054906101000a900460ff16600281111561277857612777612e92565b5b14155b8061279557508060030160019054906101000a900460ff16155b156127a05750612836565b5f5f5f90505b878110156127e557825f01548982600581106127c5576127c46145f1565b5b6020020151036127d857600191506127e5565b80806001019150506127a6565b5080156127f3575050612836565b8382600601541180612820575083826006015414801561281f57505f85148061281e575084825f0154105b5b5b156128335781600601549350815f015494505b50505b8080612841906139f1565b91505061270d565b505f821461287b578185858061285e906139f1565b965060058110612871576128706145f1565b5b6020020181815250505b505080806001019150506126fc565b505f5f90505b6003811015612a04575f5f5f600190505b60035481116129c3575f60075f8381526020019081526020015f209050806007015f9054906101000a900460ff16158061290f57506002808111156128e9576128e8612e92565b5b816005015f9054906101000a900460ff16600281111561290c5761290b612e92565b5b14155b1561291a57506129b0565b5f5f5f90505b8781101561295f57825f015489826005811061293f5761293e6145f1565b5b602002015103612952576001915061295f565b8080600101915050612920565b50801561296d5750506129b0565b838260060154118061299a575083826006015414801561299957505f851480612998575084825f0154105b5b5b156129ad5781600601549350815f015494505b50505b80806129bb906139f1565b9150506128a1565b505f82146129f557818585806129d8906139f1565b9650600581106129eb576129ea6145f1565b5b6020020181815250505b50508080600101915050612890565b505090565b5f82612a158584612a1f565b1490509392505050565b5f5f8290505f5f90505b8451811015612a6557612a5682868381518110612a4957612a486145f1565b5b6020026020010151612a70565b91508080600101915050612a29565b508091505092915050565b5f818310612a8757612a828284612a9a565b612a92565b612a918383612a9a565b5b905092915050565b5f825f528160205260405f20905092915050565b6040518060a001604052805f81526020015f8152602001612acd612b3e565b81526020015f81526020015f81525090565b6040518061012001604052805f815260200160608152602001606081526020015f60ff1681526020015f15158152602001606081526020015f6002811115612b2a57612b29612e92565b5b81526020015f81526020015f151581525090565b6040518060a00160405280600590602082028036833780820191505090505090565b5f604051905090565b5f5ffd5b5f5ffd5b5f73ffffffffffffffffffffffffffffffffffffffff82169050919050565b5f612b9a82612b71565b9050919050565b612baa81612b90565b8114612bb4575f5ffd5b50565b5f81359050612bc581612ba1565b92915050565b5f60208284031215612be057612bdf612b69565b5b5f612bed84828501612bb7565b91505092915050565b5f8115159050919050565b612c0a81612bf6565b82525050565b5f602082019050612c235f830184612c01565b92915050565b5f819050919050565b612c3b81612c29565b82525050565b5f602082019050612c545f830184612c32565b92915050565b612c6381612c29565b8114612c6d575f5ffd5b50565b5f81359050612c7e81612c5a565b92915050565b5f60208284031215612c9957612c98612b69565b5b5f612ca684828501612c70565b91505092915050565b612cb881612c29565b82525050565b5f60059050919050565b5f81905092915050565b5f819050919050565b5f612ce68383612caf565b60208301905092915050565b5f602082019050919050565b612d0781612cbe565b612d118184612cc8565b9250612d1c82612cd2565b805f5b83811015612d4c578151612d338782612cdb565b9650612d3e83612cf2565b925050600181019050612d1f565b505050505050565b61012082015f820151612d695f850182612caf565b506020820151612d7c6020850182612caf565b506040820151612d8f6040850182612cfe565b506060820151612da260e0850182612caf565b506080820151612db6610100850182612caf565b50505050565b5f61012082019050612dd05f830184612d54565b92915050565b5f819050919050565b612de881612dd6565b82525050565b5f602082019050612e015f830184612ddf565b92915050565b5f81519050919050565b5f82825260208201905092915050565b8281835e5f83830152505050565b5f601f19601f8301169050919050565b5f612e4982612e07565b612e538185612e11565b9350612e63818560208601612e21565b612e6c81612e2f565b840191505092915050565b5f60ff82169050919050565b612e8c81612e77565b82525050565b7f4e487b71000000000000000000000000000000000000000000000000000000005f52602160045260245ffd5b60038110612ed057612ecf612e92565b5b50565b5f819050612ee082612ebf565b919050565b5f612eef82612ed3565b9050919050565b612eff81612ee5565b82525050565b5f61012082019050612f195f83018c612c32565b8181036020830152612f2b818b612e3f565b90508181036040830152612f3f818a612e3f565b9050612f4e6060830189612e83565b612f5b6080830188612c01565b81810360a0830152612f6d8187612e3f565b9050612f7c60c0830186612ef6565b612f8960e0830185612c32565b612f97610100830184612c01565b9a9950505050505050505050565b5f82825260208201905092915050565b5f612fbf82612e07565b612fc98185612fa5565b9350612fd9818560208601612e21565b612fe281612e2f565b840191505092915050565b612ff681612e77565b82525050565b61300581612bf6565b82525050565b61301481612ee5565b82525050565b5f61012083015f8301516130305f860182612caf565b50602083015184820360208601526130488282612fb5565b915050604083015184820360408601526130628282612fb5565b91505060608301516130776060860182612fed565b50608083015161308a6080860182612ffc565b5060a083015184820360a08601526130a28282612fb5565b91505060c08301516130b760c086018261300b565b5060e08301516130ca60e0860182612caf565b506101008301516130df610100860182612ffc565b508091505092915050565b5f6020820190508181035f830152613102818461301a565b905092915050565b5f60808201905061311d5f830187612c32565b61312a6020830186612c32565b6131376040830185612c32565b6131446060830184612c32565b95945050505050565b5f5ffd5b5f5ffd5b7f4e487b71000000000000000000000000000000000000000000000000000000005f52604160045260245ffd5b61318b82612e2f565b810181811067ffffffffffffffff821117156131aa576131a9613155565b5b80604052505050565b5f6131bc612b60565b90506131c88282613182565b919050565b5f67ffffffffffffffff8211156131e7576131e6613155565b5b6131f082612e2f565b9050602081019050919050565b828183375f83830152505050565b5f61321d613218846131cd565b6131b3565b90508281526020810184848401111561323957613238613151565b5b6132448482856131fd565b509392505050565b5f82601f8301126132605761325f61314d565b5b813561327084826020860161320b565b91505092915050565b61328281612e77565b811461328c575f5ffd5b50565b5f8135905061329d81613279565b92915050565b6132ac81612bf6565b81146132b6575f5ffd5b50565b5f813590506132c7816132a3565b92915050565b600381106132d9575f5ffd5b50565b5f813590506132ea816132cd565b92915050565b5f5ffd5b5f5ffd5b5f5f83601f84011261330d5761330c61314d565b5b8235905067ffffffffffffffff81111561332a576133296132f0565b5b602083019150836020820283011115613346576133456132f4565b5b9250929050565b5f5f5f5f5f5f5f5f60e0898b03121561336957613368612b69565b5b5f89013567ffffffffffffffff81111561338657613385612b6d565b5b6133928b828c0161324c565b985050602089013567ffffffffffffffff8111156133b3576133b2612b6d565b5b6133bf8b828c0161324c565b97505060406133d08b828c0161328f565b96505060606133e18b828c016132b9565b955050608089013567ffffffffffffffff81111561340257613401612b6d565b5b61340e8b828c0161324c565b94505060a061341f8b828c016132dc565b93505060c089013567ffffffffffffffff8111156134405761343f612b6d565b5b61344c8b828c016132f8565b92509250509295985092959890939650565b61346781612dd6565b8114613471575f5ffd5b50565b5f813590506134828161345e565b92915050565b5f6020828403121561349d5761349c612b69565b5b5f6134aa84828501613474565b91505092915050565b5f5f83601f8401126134c8576134c761314d565b5b8235905067ffffffffffffffff8111156134e5576134e46132f0565b5b602083019150836020820283011115613501576135006132f4565b5b9250929050565b5f5f5f5f5f5f6080878903121561352257613521612b69565b5b5f61352f89828a01612c70565b965050602061354089828a01612c70565b955050604087013567ffffffffffffffff81111561356157613560612b6d565b5b61356d89828a016134b3565b9450945050606087013567ffffffffffffffff8111156135905761358f612b6d565b5b61359c89828a016132f8565b92509250509295509295509295565b600481106135bc576135bb612e92565b5b50565b5f8190506135cc826135ab565b919050565b5f6135db826135bf565b9050919050565b6135eb816135d1565b82525050565b5f6020820190506136045f8301846135e2565b92915050565b61361381612b90565b82525050565b5f60208201905061362c5f83018461360a565b92915050565b5f5f5f6040848603121561364957613648612b69565b5b5f61365686828701612c70565b935050602084013567ffffffffffffffff81111561367757613676612b6d565b5b613683868287016132f8565b92509250509250925092565b7f4e6f742061646d696e00000000000000000000000000000000000000000000005f82015250565b5f6136c3600983612e11565b91506136ce8261368f565b602082019050919050565b5f6020820190508181035f8301526136f0816136b7565b9050919050565b7f496e76616c6964207068617365000000000000000000000000000000000000005f82015250565b5f61372b600d83612e11565b9150613736826136f7565b602082019050919050565b5f6020820190508181035f8301526137588161371f565b9050919050565b7f456e64206d75737420626520696e2066757475726500000000000000000000005f82015250565b5f613793601583612e11565b915061379e8261375f565b602082019050919050565b5f6020820190508181035f8301526137c081613787565b9050919050565b7f4e487b71000000000000000000000000000000000000000000000000000000005f52602260045260245ffd5b5f600282049050600182168061380b57607f821691505b60208210810361381e5761381d6137c7565b5b50919050565b7f4e6f7420726561647900000000000000000000000000000000000000000000005f82015250565b5f613858600983612e11565b915061386382613824565b602082019050919050565b5f6020820190508181035f8301526138858161384c565b9050919050565b7f526567697374726174696f6e20706572696f64206e6f74206f766572000000005f82015250565b5f6138c0601c83612e11565b91506138cb8261388c565b602082019050919050565b5f6020820190508181035f8301526138ed816138b4565b9050919050565b7f57726f6e672070686173650000000000000000000000000000000000000000005f82015250565b5f613928600b83612e11565b9150613933826138f4565b602082019050919050565b5f6020820190508181035f8301526139558161391c565b9050919050565b7f4e6f2063616e64696461746573000000000000000000000000000000000000005f82015250565b5f613990600d83612e11565b915061399b8261395c565b602082019050919050565b5f6020820190508181035f8301526139bd81613984565b9050919050565b7f4e487b71000000000000000000000000000000000000000000000000000000005f52601160045260245ffd5b5f6139fb82612c29565b91507fffffffffffffffffffffffffffffffffffffffffffffffffffffffffffffffff8203613a2d57613a2c6139c4565b5b600182019050919050565b7f4e656564206174206c65617374203520474d2063616e646964617465730000005f82015250565b5f613a6c601d83612e11565b9150613a7782613a38565b602082019050919050565b5f6020820190508181035f830152613a9981613a60565b9050919050565b7f4e656564206174206c6561737420322066656d616c6520474d2063616e6469645f8201527f6174657300000000000000000000000000000000000000000000000000000000602082015250565b5f613afa602483612e11565b9150613b0582613aa0565b604082019050919050565b5f6020820190508181035f830152613b2781613aee565b9050919050565b5f60059050919050565b5f8190506001806001038301049050919050565b5f819050919050565b5f82821b905092915050565b5f60088302613b907fffffffffffffffffffffffffffffffffffffffffffffffffffffffffffffffff82613b55565b613b9a8683613b55565b95508019841693508086168417925050509392505050565b5f819050919050565b5f613bd5613bd0613bcb84612c29565b613bb2565b612c29565b9050919050565b5f819050919050565b613bee83613bbb565b613c02613bfa82613bdc565b848454613b61565b825550505050565b5f5f905090565b613c19613c0a565b613c24818484613be5565b505050565b5f5b82811015613c4a57613c3f5f828401613c11565b600181019050613c2b565b505050565b5f82821c905092915050565b81831015613c9257613c6c82613b38565b613c7584613b38565b613c7e83613b4c565b818101613c8d83850382613c29565b505050505b505050565b68010000000000000000821115613cb157613cb0613155565b5b613cba81613b2e565b613cc5838284613c5b565b505050565b5f613cd58251612c29565b80915050919050565b613ce782612cbe565b67ffffffffffffffff811115613d0057613cff613155565b5b613d0a8183613c97565b613d1383612cd2565b613d1c83613b4c565b600183045f5b81811015613d59575f613d3485613cca565b613d3d81613bdc565b8092506020870196505050808285015550600181019050613d22565b50505050505050565b7f526567697374726174696f6e20656e64656400000000000000000000000000005f82015250565b5f613d96601283612e11565b9150613da182613d62565b602082019050919050565b5f6020820190508181035f830152613dc381613d8a565b9050919050565b7f416c7265616479207265676973746572656400000000000000000000000000005f82015250565b5f613dfe601283612e11565b9150613e0982613dca565b602082019050919050565b5f6020820190508181035f830152613e2b81613df2565b9050919050565b5f8160601b9050919050565b5f613e4882613e32565b9050919050565b5f613e5982613e3e565b9050919050565b613e71613e6c82612b90565b613e4f565b82525050565b5f81905092915050565b5f613e8b82612e07565b613e958185613e77565b9350613ea5818560208601612e21565b80840191505092915050565b5f8160f81b9050919050565b5f613ec782613eb1565b9050919050565b613edf613eda82612e77565b613ebd565b82525050565b5f613eef82613ebd565b9050919050565b613f07613f0282612bf6565b613ee5565b82525050565b5f613f188287613e60565b601482019150613f288286613e81565b9150613f348285613ece565b600182019150613f448284613ef6565b60018201915081905095945050505050565b7f4964656e74697479206e6f7420766572696669656400000000000000000000005f82015250565b5f613f8a601583612e11565b9150613f9582613f56565b602082019050919050565b5f6020820190508181035f830152613fb781613f7e565b9050919050565b7f507265736964656e74206d7573742062652034746820796561720000000000005f82015250565b5f613ff2601a83612e11565b9150613ffd82613fbe565b602082019050919050565b5f6020820190508181035f83015261401f81613fe6565b9050919050565b7f536563726574617279206d75737420626520337264206f7220347468207965615f8201527f7200000000000000000000000000000000000000000000000000000000000000602082015250565b5f614080602183612e11565b915061408b82614026565b604082019050919050565b5f6020820190508181035f8301526140ad81614074565b9050919050565b5f819050815f5260205f209050919050565b5f6020601f8301049050919050565b5f5b828110156140f6576140eb5f828401613c11565b6001810190506140d7565b505050565b601f821115614149578282111561414857614115816140b4565b61411e836140c6565b614127856140c6565b6020861015614134575f90505b808301614143828403826140d5565b505050505b5b505050565b5f61415d5f1984600802613c4f565b1980831691505092915050565b5f614175838361414e565b9150826002028217905092915050565b61418e82612e07565b67ffffffffffffffff8111156141a7576141a6613155565b5b6141b182546137f4565b6141bc8282856140fb565b5f60209050601f8311600181146141ed575f84156141db578287015190505b6141e5858261416a565b86555061424c565b601f1984166141fb866140b4565b5f5b82811015614222578489015182556001820191506020850194506020810190506141fd565b8683101561423f578489015161423b601f89168261414e565b8355505b6001600288020188555050505b505050505050565b5f6060820190508181035f83015261426c8186612e3f565b905061427b6020830185612ef6565b818103604083015261428d8184612e3f565b9050949350505050565b7f4e6f7420696e20766f74696e67000000000000000000000000000000000000005f82015250565b5f6142cb600d83612e11565b91506142d682614297565b602082019050919050565b5f6020820190508181035f8301526142f8816142bf565b9050919050565b7f566f74696e6720706572696f64206e6f74206f766572000000000000000000005f82015250565b5f614333601683612e11565b915061433e826142ff565b602082019050919050565b5f6020820190508181035f83015261436081614327565b9050919050565b7f566f74696e6720656e64656400000000000000000000000000000000000000005f82015250565b5f61439b600c83612e11565b91506143a682614367565b602082019050919050565b5f6020820190508181035f8301526143c88161438f565b9050919050565b7f416c726561647920766f746564000000000000000000000000000000000000005f82015250565b5f614403600d83612e11565b915061440e826143cf565b602082019050919050565b5f6020820190508181035f830152614430816143f7565b9050919050565b5f6144428284613e60565b60148201915081905092915050565b7f4e6f7420656c696769626c6520766f74657200000000000000000000000000005f82015250565b5f614485601283612e11565b915061449082614451565b602082019050919050565b5f6020820190508181035f8301526144b281614479565b9050919050565b7f496e76616c696420707265736964656e740000000000000000000000000000005f82015250565b5f6144ed601183612e11565b91506144f8826144b9565b602082019050919050565b5f6020820190508181035f83015261451a816144e1565b9050919050565b7f496e76616c6964207365637265746172790000000000000000000000000000005f82015250565b5f614555601183612e11565b915061456082614521565b602082019050919050565b5f6020820190508181035f83015261458281614549565b9050919050565b7f546f6f206d616e7920474d20766f7465730000000000000000000000000000005f82015250565b5f6145bd601183612e11565b91506145c882614589565b602082019050919050565b5f6020820190508181035f8301526145ea816145b1565b9050919050565b7f4e487b71000000000000000000000000000000000000000000000000000000005f52603260045260245ffd5b7f496e76616c696420474d204944000000000000000000000000000000000000005f82015250565b5f614652600d83612e11565b915061465d8261461e565b602082019050919050565b5f6020820190508181035f83015261467f81614646565b9050919050565b7f496e76616c696420474d000000000000000000000000000000000000000000005f82015250565b5f6146ba600a83612e11565b91506146c582614686565b602082019050919050565b5f6020820190508181035f8301526146e7816146ae565b9050919050565b7f4e656564206174206c6561737420322066656d616c6520474d20766f746573005f82015250565b5f614722601f83612e11565b915061472d826146ee565b602082019050919050565b5f6020820190508181035f83015261474f81614716565b9050919050565b7f4e6f2063616e646964617465732073656c6563746564000000000000000000005f82015250565b5f61478a601683612e11565b915061479582614756565b602082019050919050565b5f6020820190508181035f8301526147b78161477e565b9050919050565b5f82825260208201905092915050565b5f5ffd5b82818337505050565b5f6147e683856147be565b93507f07ffffffffffffffffffffffffffffffffffffffffffffffffffffffffffffff831115614819576148186147ce565b5b60208302925061482a8385846147d2565b82840190509392505050565b5f6060820190506148495f830187612c32565b6148566020830186612c32565b81810360408301526148698184866147db565b905095945050505050565b7f496e76616c69642063616e6469646174650000000000000000000000000000005f82015250565b5f6148a8601183612e11565b91506148b382614874565b602082019050919050565b5f6020820190508181035f8301526148d58161489c565b905091905056fea2646970667358221220c3d450b60cf55a127e5a7ee7eee3fd83084e8c1d509396a31aee6d34f6cdc0bb64736f6c63430008230033","linkReferences":{}},"methodIdentifiers":{"GENERAL_MEMBERS_ELECTED()":"9e225d84","admin()":"f851a440","candidateCount()":"a9a981a3","candidateRegisteredInElection(address)":"c27a58aa","candidates(uint256)":"3477ee2e","castVote(uint256,uint256,uint256[],bytes32[])":"acf46e82","currentElectionId()":"98ecf2a0","electionHistory(uint256)":"35da4271","endElection()":"59f78468","getCandidate(uint256)":"35b8e820","getElectionResult(uint256)":"23fc4b36","getPhase()":"eced0280","hasVoted(address)":"09eef43e","historyCount()":"3a9c9ffc","identityMerkleRoot()":"8cb1b354","phase()":"b1c9fe6e","registerCandidate(string,string,uint8,bool,string,uint8,bytes32[])":"58e930c8","registrationEnd()":"13446a75","setIdentityMerkleRoot(bytes32)":"6e38d032","setMerkleRoot(bytes32)":"7cb64759","startNewElection()":"47f33fb5","startRegistration(uint256)":"2ed1f9b5","startVoting(uint256)":"3d2f5bda","vote(uint256,bytes32[])":"fd27419b","votedInElection(address)":"797dd1f2","voterMerkleRoot()":"2a69fb46","votingEnd()":"85a38635"},"id":23}