{"abi":[{"type":"constructor","inputs":[{"name":"_merkleRoot","type":"bytes32","internalType":"bytes32"}],"stateMutability":"nonpayable"},{"type":"function","name":"addCandidate","inputs":[{"name":"_name","type":"string","internalType":"string"},{"name":"_position","type":"uint8","internalType":"enum Election3.Position"}],"outputs":[],"stateMutability":"nonpayable"},{"type":"function","name":"admin","inputs":[],"outputs":[{"name":"","type":"address","internalType":"address"}],"stateMutability":"view"},{"type":"function","name":"candidateCount","inputs":[],"outputs":[{"name":"","type":"uint256","internalType":"uint256"}],"stateMutability":"view"},{"type":"function","name":"candidates","inputs":[{"name":"","type":"uint256","internalType":"uint256"}],"outputs":[{"name":"id","type":"uint256","internalType":"uint256"},{"name":"name","type":"string","internalType":"string"},{"name":"position","type":"uint8","internalType":"enum Election3.Position"},{"name":"voteCount","type":"uint256","internalType":"uint256"},{"name":"exists","type":"bool","internalType":"bool"}],"stateMutability":"view"},{"type":"function","name":"endElection","inputs":[],"outputs":[],"stateMutability":"nonpayable"},{"type":"function","name":"getCandidate","inputs":[{"name":"_id","type":"uint256","internalType":"uint256"}],"outputs":[{"name":"","type":"tuple","internalType":"struct Election3.Candidate","components":[{"name":"id","type":"uint256","internalType":"uint256"},{"name":"name","type":"string","internalType":"string"},{"name":"position","type":"uint8","internalType":"enum Election3.Position"},{"name":"voteCount","type":"uint256","internalType":"uint256"},{"name":"exists","type":"bool","internalType":"bool"}]}],"stateMutability":"view"},{"type":"function","name":"getPhase","inputs":[],"outputs":[{"name":"","type":"uint8","internalType":"enum Election3.Phase"}],"stateMutability":"view"},{"type":"function","name":"hasVoted","inputs":[{"name":"","type":"address","internalType":"address"}],"outputs":[{"name":"","type":"bool","internalType":"bool"}],"stateMutability":"view"},{"type":"function","name":"phase","inputs":[],"outputs":[{"name":"","type":"uint8","internalType":"enum Election3.Phase"}],"stateMutability":"view"},{"type":"function","name":"registrationEnd","inputs":[],"outputs":[{"name":"","type":"uint256","internalType":"uint256"}],"stateMutability":"view"},{"type":"function","name":"setMerkleRoot","inputs":[{"name":"_merkleRoot","type":"bytes32","internalType":"bytes32"}],"outputs":[],"stateMutability":"nonpayable"},{"type":"function","name":"startRegistration","inputs":[{"name":"_end","type":"uint256","internalType":"uint256"}],"outputs":[],"stateMutability":"nonpayable"},{"type":"function","name":"startVoting","inputs":[{"name":"_end","type":"uint256","internalType":"uint256"}],"outputs":[],"stateMutability":"nonpayable"},{"type":"function","name":"vote","inputs":[{"name":"_candidateId","type":"uint256","internalType":"uint256"},{"name":"_proof","type":"bytes32[]","internalType":"bytes32[]"}],"outputs":[],"stateMutability":"nonpayable"},{"type":"function","name":"voterMerkleRoot","inputs":[],"outputs":[{"name":"","type":"bytes32","internalType":"bytes32"}],"stateMutability":"view"},{"type":"function","name":"votingEnd","inputs":[],"outputs":[{"name":"","type":"uint256","internalType":"uint256"}],"stateMutability":"view"},{"type":"event","name":"CandidateAdded","inputs":[{"name":"id","type":"uint256","indexed":false,"internalType":"uint256"},{"name":"name","type":"string","indexed":false,"internalType":"string"},{"name":"position","type":"uint8","indexed":false,"internalType":"enum Election3.Position"}],"anonymous":false},{"type":"event","name":"MerkleRootUpdated","inputs":[{"name":"newRoot","type":"bytes32","indexed":false,"internalType":"bytes32"}],"anonymous":false},{"type":"event","name":"PhaseChanged","inputs":[{"name":"newPhase","type":"uint8","indexed":false,"internalType":"enum Election3.Phase"}],"anonymous":false},{"type":"event","name":"VoteCast","inputs":[{"name":"voter","type":"address","indexed":true,"internalType":"address"},{"name":"candidateId","type":"uint256","indexed":false,"internalType":"uint256"}],"anonymous":false}],"bytecode":{"object":"0x608060405234801561000f575f5ffd5b50604051611e91380380611e91833981810160405281019061003191906100dd565b335f5f6101000a81548173ffffffffffffffffffffffffffffffffffffffff021916908373ffffffffffffffffffffffffffffffffffffffff160217905550806004819055505f5f60146101000a81548160ff0219169083600381111561009b5761009a610108565b5b021790555050610135565b5f5ffd5b5f819050919050565b6100bc816100aa565b81146100c6575f5ffd5b50565b5f815190506100d7816100b3565b92915050565b5f602082840312156100f2576100f16100a6565b5b5f6100ff848285016100c9565b91505092915050565b7f4e487b71000000000000000000000000000000000000000000000000000000005f52602160045260245ffd5b611d4f806101425f395ff3fe608060405234801561000f575f5ffd5b50600436106100fe575f3560e01c80637cb6475911610095578063e0c2eb0211610064578063e0c2eb021461028a578063eced0280146102a6578063f851a440146102c4578063fd27419b146102e2576100fe565b80637cb647591461021457806385a3863514610230578063a9a981a31461024e578063b1c9fe6e1461026c576100fe565b80633477ee2e116100d15780633477ee2e1461018a57806335b8e820146101be5780633d2f5bda146101ee57806359f784681461020a576100fe565b806309eef43e1461010257806313446a75146101325780632a69fb46146101505780632ed1f9b51461016e575b5f5ffd5b61011c60048036038101906101179190610ff9565b6102fe565b604051610129919061103e565b60405180910390f35b61013a61031b565b604051610147919061106f565b60405180910390f35b610158610321565b60405161016591906110a0565b60405180910390f35b610188600480360381019061018391906110e3565b610327565b005b6101a4600480360381019061019f91906110e3565b610421565b6040516101b59594939291906111f1565b60405180910390f35b6101d860048036038101906101d391906110e3565b6104f1565b6040516101e59190611331565b60405180910390f35b610208600480360381019061020391906110e3565b610613565b005b610212610782565b005b61022e6004803603810190610229919061137b565b610874565b005b610238610943565b604051610245919061106f565b60405180910390f35b610256610949565b604051610263919061106f565b60405180910390f35b61027461094f565b60405161028191906113ec565b60405180910390f35b6102a4600480360381019061029f9190611554565b610961565b005b6102ae610b88565b6040516102bb91906113ec565b60405180910390f35b6102cc610b9d565b6040516102d991906115bd565b60405180910390f35b6102fc60048036038101906102f79190611633565b610bc1565b005b6006602052805f5260405f205f915054906101000a900460ff1681565b60015481565b60045481565b5f5f9054906101000a900473ffffffffffffffffffffffffffffffffffffffff1673ffffffffffffffffffffffffffffffffffffffff163373ffffffffffffffffffffffffffffffffffffffff16146103b5576040517f08c379a00000000000000000000000000000000000000000000000000000000081526004016103ac906116da565b60405180910390fd5b60015f60146101000a81548160ff021916908360038111156103da576103d961117e565b5b0217905550806001819055507fa6dcc92f45df25789d5639b7a0c97ba1edf3bb1c0b5dd3376fd96a0db87c4642600160405161041691906113ec565b60405180910390a150565b6005602052805f5260405f205f91509050805f01549080600101805461044690611725565b80601f016020809104026020016040519081016040528092919081815260200182805461047290611725565b80156104bd5780601f10610494576101008083540402835291602001916104bd565b820191905f5260205f20905b8154815290600101906020018083116104a057829003601f168201915b505050505090806002015f9054906101000a900460ff1690806003015490806004015f9054906101000a900460ff16905085565b6104f9610f4f565b60055f8381526020019081526020015f206040518060a00160405290815f820154815260200160018201805461052e90611725565b80601f016020809104026020016040519081016040528092919081815260200182805461055a90611725565b80156105a55780601f1061057c576101008083540402835291602001916105a5565b820191905f5260205f20905b81548152906001019060200180831161058857829003601f168201915b50505050508152602001600282015f9054906101000a900460ff1660028111156105d2576105d161117e565b5b60028111156105e4576105e361117e565b5b815260200160038201548152602001600482015f9054906101000a900460ff1615151515815250509050919050565b5f5f9054906101000a900473ffffffffffffffffffffffffffffffffffffffff1673ffffffffffffffffffffffffffffffffffffffff163373ffffffffffffffffffffffffffffffffffffffff16146106a1576040517f08c379a0000000000000000000000000000000000000000000000000000000008152600401610698906116da565b60405180910390fd5b600160038111156106b5576106b461117e565b5b5f60149054906101000a900460ff1660038111156106d6576106d561117e565b5b14610716576040517f08c379a000000000000000000000000000000000000000000000000000000000815260040161070d9061179f565b60405180910390fd5b60025f60146101000a81548160ff0219169083600381111561073b5761073a61117e565b5b0217905550806002819055507fa6dcc92f45df25789d5639b7a0c97ba1edf3bb1c0b5dd3376fd96a0db87c4642600260405161077791906113ec565b60405180910390a150565b5f5f9054906101000a900473ffffffffffffffffffffffffffffffffffffffff1673ffffffffffffffffffffffffffffffffffffffff163373ffffffffffffffffffffffffffffffffffffffff1614610810576040517f08c379a0000000000000000000000000000000000000000000000000000000008152600401610807906116da565b60405180910390fd5b60035f60146101000a81548160ff021916908360038111156108355761083461117e565b5b02179055507fa6dcc92f45df25789d5639b7a0c97ba1edf3bb1c0b5dd3376fd96a0db87c4642600360405161086a91906113ec565b60405180910390a1565b5f5f9054906101000a900473ffffffffffffffffffffffffffffffffffffffff1673ffffffffffffffffffffffffffffffffffffffff163373ffffffffffffffffffffffffffffffffffffffff1614610902576040517f08c379a00000000000000000000000000000000000000000000000000000000081526004016108f9906116da565b60405180910390fd5b806004819055507f90004c04698bc3322499a575ed3752dd4abf33e0a7294c06a787a0fe01bea9418160405161093891906110a0565b60405180910390a150565b60025481565b60035481565b5f60149054906101000a900460ff1681565b5f5f9054906101000a900473ffffffffffffffffffffffffffffffffffffffff1673ffffffffffffffffffffffffffffffffffffffff163373ffffffffffffffffffffffffffffffffffffffff16146109ef576040517f08c379a00000000000000000000000000000000000000000000000000000000081526004016109e6906116da565b60405180910390fd5b6001806003811115610a0457610a0361117e565b5b5f60149054906101000a900460ff166003811115610a2557610a2461117e565b5b14610a65576040517f08c379a0000000000000000000000000000000000000000000000000000000008152600401610a5c90611807565b60405180910390fd5b60035f815480929190610a7790611852565b91905055506040518060a001604052806003548152602001848152602001836002811115610aa857610aa761117e565b5b81526020015f81526020016001151581525060055f60035481526020019081526020015f205f820151815f01556020820151816001019081610aea9190611a4a565b506040820151816002015f6101000a81548160ff02191690836002811115610b1557610b1461117e565b5b0217905550606082015181600301556080820151816004015f6101000a81548160ff0219169083151502179055509050507fc5de45d90fa735d9a18a45e1b247382d2b04cbc49fc9a52df691b19c69e65f986003548484604051610b7b93929190611b19565b60405180910390a1505050565b5f5f60149054906101000a900460ff16905090565b5f5f9054906101000a900473ffffffffffffffffffffffffffffffffffffffff1681565b6002806003811115610bd657610bd561117e565b5b5f60149054906101000a900460ff166003811115610bf757610bf661117e565b5b14610c37576040517f08c379a0000000000000000000000000000000000000000000000000000000008152600401610c2e90611807565b60405180910390fd5b60065f3373ffffffffffffffffffffffffffffffffffffffff1673ffffffffffffffffffffffffffffffffffffffff1681526020019081526020015f205f9054906101000a900460ff1615610cc1576040517f08c379a0000000000000000000000000000000000000000000000000000000008152600401610cb890611b9f565b60405180910390fd5b60055f8581526020019081526020015f206004015f9054906101000a900460ff16610d21576040517f08c379a0000000000000000000000000000000000000000000000000000000008152600401610d1890611c07565b60405180910390fd5b5f33604051602001610d339190611c6a565b604051602081830303815290604052805190602001209050610d988484808060200260200160405190810160405280939291908181526020018383602002808284375f81840152601f19601f8201169050808301925050505050505060045483610eaa565b610dd7576040517f08c379a0000000000000000000000000000000000000000000000000000000008152600401610dce90611cce565b60405180910390fd5b600160065f3373ffffffffffffffffffffffffffffffffffffffff1673ffffffffffffffffffffffffffffffffffffffff1681526020019081526020015f205f6101000a81548160ff02191690831515021790555060055f8681526020019081526020015f206003015f815480929190610e5090611852565b91905055503373ffffffffffffffffffffffffffffffffffffffff167fa36cc2bebb74db33e9f88110a07ef56e1b31b24b4c4f51b54b1664266e29f45b86604051610e9b919061106f565b60405180910390a25050505050565b5f82610eb68584610ec0565b1490509392505050565b5f5f8290505f5f90505b8451811015610f0657610ef782868381518110610eea57610ee9611cec565b5b6020026020010151610f11565b91508080600101915050610eca565b508091505092915050565b5f818310610f2857610f238284610f3b565b610f33565b610f328383610f3b565b5b905092915050565b5f825f528160205260405f20905092915050565b6040518060a001604052805f8152602001606081526020015f6002811115610f7a57610f7961117e565b5b81526020015f81526020015f151581525090565b5f604051905090565b5f5ffd5b5f5ffd5b5f73ffffffffffffffffffffffffffffffffffffffff82169050919050565b5f610fc882610f9f565b9050919050565b610fd881610fbe565b8114610fe2575f5ffd5b50565b5f81359050610ff381610fcf565b92915050565b5f6020828403121561100e5761100d610f97565b5b5f61101b84828501610fe5565b91505092915050565b5f8115159050919050565b61103881611024565b82525050565b5f6020820190506110515f83018461102f565b92915050565b5f819050919050565b61106981611057565b82525050565b5f6020820190506110825f830184611060565b92915050565b5f819050919050565b61109a81611088565b82525050565b5f6020820190506110b35f830184611091565b92915050565b6110c281611057565b81146110cc575f5ffd5b50565b5f813590506110dd816110b9565b92915050565b5f602082840312156110f8576110f7610f97565b5b5f611105848285016110cf565b91505092915050565b5f81519050919050565b5f82825260208201905092915050565b8281835e5f83830152505050565b5f601f19601f8301169050919050565b5f6111508261110e565b61115a8185611118565b935061116a818560208601611128565b61117381611136565b840191505092915050565b7f4e487b71000000000000000000000000000000000000000000000000000000005f52602160045260245ffd5b600381106111bc576111bb61117e565b5b50565b5f8190506111cc826111ab565b919050565b5f6111db826111bf565b9050919050565b6111eb816111d1565b82525050565b5f60a0820190506112045f830188611060565b81810360208301526112168187611146565b905061122560408301866111e2565b6112326060830185611060565b61123f608083018461102f565b9695505050505050565b61125281611057565b82525050565b5f82825260208201905092915050565b5f6112728261110e565b61127c8185611258565b935061128c818560208601611128565b61129581611136565b840191505092915050565b6112a9816111d1565b82525050565b6112b881611024565b82525050565b5f60a083015f8301516112d35f860182611249565b50602083015184820360208601526112eb8282611268565b915050604083015161130060408601826112a0565b5060608301516113136060860182611249565b50608083015161132660808601826112af565b508091505092915050565b5f6020820190508181035f83015261134981846112be565b905092915050565b61135a81611088565b8114611364575f5ffd5b50565b5f8135905061137581611351565b92915050565b5f602082840312156113905761138f610f97565b5b5f61139d84828501611367565b91505092915050565b600481106113b7576113b661117e565b5b50565b5f8190506113c7826113a6565b919050565b5f6113d6826113ba565b9050919050565b6113e6816113cc565b82525050565b5f6020820190506113ff5f8301846113dd565b92915050565b5f5ffd5b5f5ffd5b7f4e487b71000000000000000000000000000000000000000000000000000000005f52604160045260245ffd5b61144382611136565b810181811067ffffffffffffffff821117156114625761146161140d565b5b80604052505050565b5f611474610f8e565b9050611480828261143a565b919050565b5f67ffffffffffffffff82111561149f5761149e61140d565b5b6114a882611136565b9050602081019050919050565b828183375f83830152505050565b5f6114d56114d084611485565b61146b565b9050828152602081018484840111156114f1576114f0611409565b5b6114fc8482856114b5565b509392505050565b5f82601f83011261151857611517611405565b5b81356115288482602086016114c3565b91505092915050565b6003811061153d575f5ffd5b50565b5f8135905061154e81611531565b92915050565b5f5f6040838503121561156a57611569610f97565b5b5f83013567ffffffffffffffff81111561158757611586610f9b565b5b61159385828601611504565b92505060206115a485828601611540565b9150509250929050565b6115b781610fbe565b82525050565b5f6020820190506115d05f8301846115ae565b92915050565b5f5ffd5b5f5ffd5b5f5f83601f8401126115f3576115f2611405565b5b8235905067ffffffffffffffff8111156116105761160f6115d6565b5b60208301915083602082028301111561162c5761162b6115da565b5b9250929050565b5f5f5f6040848603121561164a57611649610f97565b5b5f611657868287016110cf565b935050602084013567ffffffffffffffff81111561167857611677610f9b565b5b611684868287016115de565b92509250509250925092565b7f4e6f742061646d696e00000000000000000000000000000000000000000000005f82015250565b5f6116c4600983611118565b91506116cf82611690565b602082019050919050565b5f6020820190508181035f8301526116f1816116b8565b9050919050565b7f4e487b71000000000000000000000000000000000000000000000000000000005f52602260045260245ffd5b5f600282049050600182168061173c57607f821691505b60208210810361174f5761174e6116f8565b5b50919050565b7f4e6f7420726561647900000000000000000000000000000000000000000000005f82015250565b5f611789600983611118565b915061179482611755565b602082019050919050565b5f6020820190508181035f8301526117b68161177d565b9050919050565b7f57726f6e672070686173650000000000000000000000000000000000000000005f82015250565b5f6117f1600b83611118565b91506117fc826117bd565b602082019050919050565b5f6020820190508181035f83015261181e816117e5565b9050919050565b7f4e487b71000000000000000000000000000000000000000000000000000000005f52601160045260245ffd5b5f61185c82611057565b91507fffffffffffffffffffffffffffffffffffffffffffffffffffffffffffffffff820361188e5761188d611825565b5b600182019050919050565b5f819050815f5260205f209050919050565b5f6020601f8301049050919050565b5f82821b905092915050565b5f600883026118f57fffffffffffffffffffffffffffffffffffffffffffffffffffffffffffffffff826118ba565b6118ff86836118ba565b95508019841693508086168417925050509392505050565b5f819050919050565b5f61193a61193561193084611057565b611917565b611057565b9050919050565b5f819050919050565b61195383611920565b61196761195f82611941565b8484546118c6565b825550505050565b5f5f905090565b61197e61196f565b61198981848461194a565b505050565b5f5b828110156119af576119a45f828401611976565b600181019050611990565b505050565b601f821115611a025782821115611a01576119ce81611899565b6119d7836118ab565b6119e0856118ab565b60208610156119ed575f90505b8083016119fc8284038261198e565b505050505b5b505050565b5f82821c905092915050565b5f611a225f1984600802611a07565b1980831691505092915050565b5f611a3a8383611a13565b9150826002028217905092915050565b611a538261110e565b67ffffffffffffffff811115611a6c57611a6b61140d565b5b611a768254611725565b611a818282856119b4565b5f60209050601f831160018114611ab2575f8415611aa0578287015190505b611aaa8582611a2f565b865550611b11565b601f198416611ac086611899565b5f5b82811015611ae757848901518255600182019150602085019450602081019050611ac2565b86831015611b045784890151611b00601f891682611a13565b8355505b6001600288020188555050505b505050505050565b5f606082019050611b2c5f830186611060565b8181036020830152611b3e8185611146565b9050611b4d60408301846111e2565b949350505050565b7f416c726561647920766f746564000000000000000000000000000000000000005f82015250565b5f611b89600d83611118565b9150611b9482611b55565b602082019050919050565b5f6020820190508181035f830152611bb681611b7d565b9050919050565b7f496e76616c69642063616e6469646174650000000000000000000000000000005f82015250565b5f611bf1601183611118565b9150611bfc82611bbd565b602082019050919050565b5f6020820190508181035f830152611c1e81611be5565b9050919050565b5f8160601b9050919050565b5f611c3b82611c25565b9050919050565b5f611c4c82611c31565b9050919050565b611c64611c5f82610fbe565b611c42565b82525050565b5f611c758284611c53565b60148201915081905092915050565b7f4e6f7420656c696769626c6520766f74657200000000000000000000000000005f82015250565b5f611cb8601283611118565b9150611cc382611c84565b602082019050919050565b5f6020820190508181035f830152611ce581611cac565b9050919050565b7f4e487b71000000000000000000000000000000000000000000000000000000005f52603260045260245ffdfea2646970667358221220e6c302d6e13e46ab701e3c4fe25b630a099edeb2483849cb79d091ec1f364e5364736f6c63430008230033","linkReferences":{}},"methodIdentifiers":{"addCandidate(string,uint8)":"e0c2eb02","admin()":"f851a440","candidateCount()":"a9a981a3","candidates(uint256)":"3477ee2e","endElection()":"59f78468","getCandidate(uint256)":"35b8e820","getPhase()":"eced0280","hasVoted(address)":"09eef43e","phase()":"b1c9fe6e","registrationEnd()":"13446a75","setMerkleRoot(bytes32)":"7cb64759","startRegistration(uint256)":"2ed1f9b5","startVoting(uint256)":"3d2f5bda","vote(uint256,bytes32[])":"fd27419b","voterMerkleRoot()":"2a69fb46","votingEnd()":"85a38635"},"id":23}